:020000040800F2
:1000000080070020E1200008D5020008D702000880
:10001000D9020008DB020008DD0200080000000031
:10002000000000000000000000000000DF020008E7
:10003000E102000800000000E3020008E5020008F9
:10004000FB200008FB200008FB200008FB20000824
:10005000FB200008FB200008FB200008FB20000814
:10006000FB200008FB200008FB200008FB20000804
:10007000FB200008FB200008FB200008FB200008F4
:10008000FB200008FB200008FB200008FB200008E4
:10009000FB200008FB200008FB200008FB200008D4
:1000A000FB200008FB200008FB200008FB200008C4
:1000B000FB200008FB200008FB200008FB200008B4
:1000C000FB200008FB200008FB200008FB200008A4
:1000D000FB200008550A0008FB200008FB20000850
:1000E000FB200008FB200008FB200008FB20000884
:1000F000FB200008FB200008FB200008FB20000874
:10010000FB200008FB20000877020008FB20000805
:10011000FB200008FB200008FB200008FB20000853
:10012000FB200008FB200008FB200008FB20000843
:1001300000F002F800F047F80AA090E8000C8244B2
:100140008344AAF10107DA4501D100F03CF8AFF28F
:10015000090EBAE80F0013F0010F18BFFB1A43F0A5
:10016000010318477838000098380000103A24BF7F
:1001700078C878C1FAD8520724BF30C830C144BF0C
:1001800004680C607047000000230024002500264E
:10019000103A28BF78C1FBD8520728BF30C148BFEA
:1001A0000B607047662903F0CC83002070471FB5B1
:1001B00002F096FA04000020002102F0EBFFE0605C
:1001C0001FBD10B510BD02F0A3FB1146FFF7EFFFF6
:1001D00000F036F802F0C1FB03B4FFF7F2FF03BCF6
:1001E00000F0E2FB10B500F08FFB00F0D9FB4FF4FC
:1001F000E13000F0E3FB00F031F900F0F5FA0028FF
:10020000FBD12C4908604FF47A7000F0ABFB002062
:1002100000F059FB284C2061012000F054FB606184
:10022000022000F050FBA061032000F04CFBE061D5
:10023000BDE8104041F61F4140F2F31000F028B92C
:10024000FFF7D0FF1C4C1D4D41F288362169206814
:1002500003F002FB03F0A6F902460B4618A001F0DA
:1002600061FF4021284601F0FEFE0028F9D030460B
:1002700000F078FBEAE770B5154D2888C00714D068
:10028000002000F020FB0C4C2060012000F01BFB44
:100290006060022000F017FBA060032000F013FB59
:1002A000E06004480168C9430160288820F001002B
:1002B000288070BD94812142000000200038014058
:1002C0004348303B25332E3366200D0A00000000E2
:1002D000100C00407047FEE7FEE7FEE7FEE77047C0
:1002E00070477047704700000CB5002201920092E1
:1002F0005248016841F4803101604FF4A063016805
:1003000001F4003100910199491C0191009911B942
:1003100001999942F3D10168890302D50121009125
:1003200000E000920099012930D145490A6842F065
:1003300010020A600A6822F003020A600A6842F0AA
:1003400002020A604168416041684160416841F4CD
:1003500080614160416821F47C114160416841F451
:10036000E8114160016841F0807101600168890114
:10037000FCD5416821F003014160416841F0020170
:1003800041604168C1F381010229FAD10CBDABE79C
:1003900010B52A48016841F0010101604168294A0D
:1003A000114041600168284A11400160016821F450
:1003B00080210160416821F4FE0141604FF41F017A
:1003C0008160FFF7E4FF21494FF00060086010BD35
:1003D00010B51A4A506800F00C011D4B1D48002949
:1003E0000ED004290ED008290ED003605168194A96
:1003F000C1F30311121D515C0268CA40026010BDB6
:100400000360F3E70360F1E7516801F4701153688A
:1004100003F48033022404EB914133B153689B030E
:1004200007D50D4B59430160E0E70B4B5943016081
:10043000DCE7074B59430160D8E700000010024099
:10044000002002400000FFF8FFFFF6FE08ED00E08C
:1004500000127A002000002000093D0038B501217B
:10046000082000F002FE2020ADF8000010208DF8DA
:10047000030003208DF80200044C6946204600F07A
:10048000EEFB2021204600F059FC38BD000C014055
:100490007FB504460D460121082000F0F1FDADF8BE
:1004A0000840ADF804500024ADF80A40ADF806400D
:1004B0000D4D01A9284600F017FF012211462846DC
:1004C00001F0FDF932218DF800108DF80140012175
:1004D0008DF802108DF80310684600F000FB012132
:1004E000284601F0D2F97FBD000C0040022000F048
:1004F00022BA704738B50121082000F0B6FD4FF44C
:100500004064ADF8004010208DF8030003208DF802
:100510000200F74D6946284600F0A1FB2146284617
:1005200000F00CFC38BD70B5F148001D016821F4E5
:1005300070410160016841F440510160ED4C0120BF
:1005400060602060FFF7D2FF00256560FFF7CEFFF7
:10055000256070BD10B5E648001D016821F47041AA
:100560000160016841F440510160E24C00202060CC
:100570006060FFF7BBFF012020606060BDE81040B5
:10058000B4E770B50024DA48001D016821F4704119
:100590000160016841F400410160D74D0126C5F8B2
:1005A000AC61FFF7A3FFC5F8A861FFF79FFF07E065
:1005B000641CE4B2FA2C03D9FFF7CCFF012070BD14
:1005C000D5F82C010028F3D1C5F8A80170BD70B58D
:1005D000C84C00252560C648001D016821F4704103
:1005E0000160016841F4405101606560FFF77EFFE2
:1005F00001202060FFF77AFF256070BD70B5BD4C0B
:1006000000252560BA48001D016821F47041016091
:10061000016841F44051016001266660FFF766FF02
:100620002660FFF763FF256070BD2DE9F0410546A8
:10063000AF48001D016821F470410160016841F478
:1006400040510160AC4E4FF00008C6F8A88100246C
:100650000127E809C6F8AC016806050EC6F8A871BE
:10066000FFF744FFC6F8A881FFF740FF641CE4B21F
:10067000082CEED3BDE8F0812DE9F0478146002437
:100680009B48001D016821F470410160016841F43C
:10069000004101600025984E00274FF00108C6F880
:1006A000A871FFF723FFC6F8A8816006040ED6F8EC
:1006B0002C0108B1641CE4B2FFF718FF6D1CEDB209
:1006C000082DECD3B9F1000F04D0FFF780FF2046CE
:1006D000BDE8F087FFF792FFF9E770B506460D46D3
:1006E0001446FFF720FF5420FFF79FFFFFF749FF55
:1006F00018B1FFF72FFF012070BD3046FFF795FFBF
:10070000FFF73FFF2846FFF790FFFFF73AFF18B1CA
:10071000FFF720FF012070BD2046FFF786FFFFF79F
:1007200030FF18B1FFF716FF012070BDFFF712FF71
:10073000002070BD70B50446FFF7F5FE5420FFF7AA
:1007400074FFFFF71EFF2046FFF76FFFFFF719FF4B
:10075000FFF7E9FE5520FFF768FFFFF712FF0120C2
:10076000FFF78AFF05020020FFF786FF40EA050435
:10077000FFF7F0FE204670BD10B5002806D0012816
:100780000FD0022818D003282BD120E00020FFF73B
:10079000D1FFC0F30B040120FFF7CCFF40EA044176
:1007A0001FE00220FFF7C6FFC0F30B040320FFF792
:1007B000C1FF40EA044114E00420FFF7BBFFC0F38F
:1007C0000B040520FFF7B6FF40EA044109E00620CC
:1007D000FFF7B0FFC0F30B040720FFF7ABFF40EAC1
:1007E000044121F0704010BD10B5FFF782FEFFF705
:1007F00081FE7E20FFF79EFFA0F5A841493901D078
:10080000012010BDFB2234210820FFF766FFFB22E8
:1008100034210920FFF761FFFB2234210A20FFF772
:100820005CFFFB2234210B20FFF757FF1B22002126
:100830001020FFF752FF1B2200211120FFF74DFF70
:100840001B2200211220FFF748FF1B22002113204A
:10085000FFF743FF022220211420FFF73EFF022270
:1008600020211520FFF739FF022220211620FFF753
:1008700034FF022220211720FFF72FFF00227821CA
:100880001E20FFF72AFF002278211F20FFF725FFF7
:10089000002278212020FFF720FF0022782121204C
:1008A000FFF71BFF002211461920FFF716FF0D224C
:1008B000C2211B20FFF711FF012214211A20FFF78C
:1008C0000CFF002010BD10B5FFF756FF0B49086064
:1008D00002F000FE02460B4609480A4902F0A2FC5B
:1008E00002F06EFCBDE81040014602F0E9BE0000D7
:1008F000000C0140A88121420080214234000020E8
:10090000DBF97E6AB8A8AB4110B56FF0040000F0C7
:1009100029F9204820490068B0FBF1F01F49C0B216
:10092000087000EB4002C2EBC0104FF6FF7202EA03
:10093000C000488010BD1949097848434FF0E021B4
:10094000486100238B61086940F001000861086973
:10095000C20701D0C003FAD5086920F00100086180
:100960008B6170470D49498848434FF0E021486149
:1009700000238B61086940F0010008610869C20723
:1009800001D0C003FAD5086920F0010008618B612D
:10099000704700002000002000127A00380000207C
:1009A0004FF4A06000F096B8704746490A88520696
:1009B000FCD5444AC1B2121D1180704770B586B093
:1009C0000546012144F2040000F04FFB4FF4007093
:1009D000ADF8140003248DF8164018218DF8171077
:1009E000394E05A9304600F03AF93115ADF814102A
:1009F00004218DF8171005A9304600F030F92520A4
:100A00008DF800008DF801408DF8024001208DF82E
:100A10000300684600F063F801950020ADF8080077
:100A2000ADF80A00ADF80C00ADF810000C20ADF8E0
:100A30000E00244C01A9204601F0CCF9012240F21D
:100A40002551204601F04DFA0121204601F03DFAE2
:100A500006B070BD70B51B4C40F22551204601F028
:100A60000DFB00280ED0204601F094FAC1B2174ABF
:100A70001088030406D444044FF0000307D50A2964
:100A800001D0138070BD40F40040108070BD0D296E
:100A90000AD00F4DC0F30D042955401C80B21080C0
:100AA000C728F3D9138070BD40F48040108070BD1A
:100AB00010B5044C0146204601F068FA2088400633
:100AC000FCD510BD00380140000801403C0000206A
:100AD000580000202A4908432A490860704770B529
:100AE0000F23C27801260178002A1ED0254A1268F9
:100AF00002F4E062C2F5E062120AC2F10404D340DB
:100B00004578A54082781A402A43120101F1E0217C
:100B100081F80024007800F01F018E404009800019
:100B200000F1E020C0F8006170BD01F01F008640B8
:100B30004809800000F1E020C0F8806170BD124AD1
:100B4000114001430F48001F016070470D4A121DFC
:100B5000002903D011680143116070471168814377
:100B6000116070474FF0E021042804D0086920F09C
:100B7000040008617047086940F00400086170478C
:100B80000000FA050CED00E080FFFF1F10B59C4946
:100B9000884209D10121042000F07DFA0021BDE83E
:100BA0001040042000F077BA9649884209D101210B
:100BB000082000F070FA0021BDE81040082000F085
:100BC0006ABA9149884209D10121102000F063FAE4
:100BD0000021BDE81040102000F05DBA8B4988422A
:100BE00009D10121202000F056FA0021BDE8104073
:100BF000202000F050BA8649884209D101214020C6
:100C000000F049FA0021BDE81040402000F043BA4E
:100C10008049884209D10121802000F03CFA00215E
:100C2000BDE81040802000F036BA7B4988420AD1E6
:100C300084150121204600F02EFA2046BDE8104020
:100C4000002100F028BA10BD10B50121084600F0BF
:100C500022FA0021BDE81040012000F01CBA2DE965
:100C6000F0410022CC7804F00F03E40601D58C7823
:100C700023430C784FF00F0714F0FF0F4FF0010CD7
:100C80001CD005680CFA02F40E882640A64211D149
:100C9000960007FA06F825EA080503FA06F848EA76
:100CA0000505CE78282E02D0482E02D002E04461FD
:100CB00000E00461521C082AE4D305600A88FF2A78
:100CC0001ED94568002202F108060CFA06F40E88C7
:100CD0002640A64210D1960007FA06F825EA080534
:100CE00003FA06F848EA0505CE78282E00D14461BB
:100CF000CE78482E00D10461521C082AE3D3456007
:100D0000BDE8F0814FF6FF7101800221817004215E
:100D1000C17070470246002092680A4200D001204C
:100D20007047806880B2704702460020D2680A424D
:100D300000D001207047C06880B2704701617047E1
:100D400041617047002A01D00161704741617047DD
:100D5000C160704741F48032826181618261816942
:100D60008069704710B52D4B1A684FF68074224089
:100D700042EA00100843186010BD2949C861704755
:100D8000F0B5264C002801DAE36900E06368C0F39F
:100D90000346420D120185B2C0F301579540032F5F
:100DA00007D0C2020CD50322B240934343F07062D5
:100DB00009E023F07062636823F07063636002E00F
:100DC000AB4343F0706201B12A43002801DAE261CB
:100DD000F0BD6260F0BD10B58A07120F0F2393407B
:100DE00021F003040D4921448C689C438C608B687E
:100DF000904003438B6010BD0949DC3108607047A7
:100E000000080140000C01400010014000140140A6
:100E100000180140001C014000200140000001407A
:100E200000002042B448016841F0010101604168BE
:100E3000B24A114041600168B14A11400160016845
:100E400021F480210160416821F4FE0141604FF4EA
:100E50001F0181607047A8490A6822F480320A6045
:100E60000A6822F480220A60B0F5803F07D0B0F50E
:100E7000802F03D1086840F4A020086070470868FC
:100E800040F48030086070470346002059099A4AB0
:100E900001290AD002290AD0516A03F01F02012356
:100EA00093400B4200D0012070471168F5E7116AAA
:100EB000F3E718B5002000904FF4A0643120FFF74D
:100EC000E3FF0099491C00910099A14201D000283C
:100ED000F4D03120FFF7D8FF08B1012018BD002061
:100EE00018BD854A116821F0F80141EAC000106080
:100EF00070478449086070477F4B5A6822F47C121F
:100F000008431043586070477E49086670477A4A24
:100F1000516821F0030101435160704776484068F1
:100F200000F00C007047744A516821F0F001014351
:100F300051607047704A516821F4E061014351608B
:100F400070476D4A516821F4605141EAC000506019
:100F50007047694A002903D0517A014351727047A2
:100F6000517A8143517270476649D83108607047A1
:100F7000614A516821F440410143516070475E4924
:100F8000002220310A7001F82029012805D0042808
:100F900002D1052081F820007047012081F820004F
:100FA000704759490860704753490A6A02430A6208
:100FB0007047554944390860704710B54E4A51682A
:100FC00001F00C01514B002927D0042927D0082912
:100FD00027D00360516801F0F00109094C4B5C5CBB
:100FE0000168E1404160546804F4E064240A1C5D37
:100FF00021FA04F48460546804F46054E40A1B5D2C
:10100000D940C160526802F44042920B404B1B1F12
:101010009A5CB1FBF2F1016110BD0360DAE7036095
:10102000D8E7516801F47011536803F48033022447
:1010300004EB914133B153689B0307D5354B5943BA
:101040000160C7E7334B59430160C3E72F4B594356
:101050000160BFE7284A002903D05169014351616B
:1010600070475169814351617047234A002903D079
:101070009169014391617047916981439161704722
:101080001D4A002903D0D1690143D1617047D1695C
:101090008143D1617047184A002903D0D1680143C8
:1010A000D1607047D1688143D1607047124A0029EE
:1010B00003D01169014311617047116981431161C6
:1010C000704711494039086070470E49C86470473D
:1010D0000949C87170470848416A41F0807141620E
:1010E000704701460020044A92680A4200D001205D
:1010F0007047014988727047001002400000FFF8F5
:10110000FFFFF6FE000042428004424200127A00D5
:101110004800002000093D0010B5FE4988420AD170
:10112000C41401212046FFF7B6FF2046BDE8104059
:101130000021FFF7B0BFB0F1804F0CD0F6498842D4
:1011400013D101210220FFF7B1FF0021BDE81040BB
:101150000220FFF7ABBF01210846FFF7A7FF0021E0
:10116000BDE810400120FFF7A1BFEC49884209D13A
:1011700001210420FFF79AFF0021BDE81040042060
:10118000FFF794BFE649884209D101210820FFF703
:101190008DFF0021BDE810400820FFF787BFE1491F
:1011A000884209D101211020FFF780FF0021BDE80E
:1011B00010401020FFF77ABFDB49884209D1012196
:1011C0002020FFF773FF0021BDE810402020FFF72B
:1011D0006DBFD64988420AD1441401212046FFF749
:1011E0005AFF2046BDE810400021FFF754BFD04908
:1011F00088420AD10121CC042046FFF74CFF20464B
:10120000BDE810400021FFF746BFCA4988420AD115
:1012100001210C052046FFF73EFF2046BDE81040A7
:101220000021FFF738BFC44988420AD101214C058B
:101230002046FFF730FF2046BDE810400021FFF7B1
:101240002ABFBE49884209D101214020FFF72EFF65
:101250000021BDE810404020FFF728BFB849884270
:1012600009D101218020FFF721FF0021BDE81040B6
:101270008020FFF71BBFB34988420AD184150121A2
:101280002046FFF713FF2046BDE810400021FFF77E
:101290000DBFAD4988420AD101210C042046FFF759
:1012A000FAFE2046BDE810400021FFF7F4BEA74932
:1012B00088420AD101214C042046FFF7ECFE20466B
:1012C000BDE810400021FFF7E6BEA14988420AD1DF
:1012D00001218C042046FFF7DEFE2046BDE81040C9
:1012E0000021FFF7D8BE10BD30B50288894C8F4D64
:1012F000A0420DD0A8420BD0B0F1804F08D0864B51
:10130000984205D0854B984202D0854B984203D134
:1013100022F070034A881A43824B984206D0824BCF
:10132000984203D022F44073CA881A4302808A8804
:1013300082850A880285A0420AD0A84208D0824A43
:10134000904205D0814A904202D0814A904201D118
:10135000097A01860121818230BD30B5028C22F0EC
:1013600001020284028C8388048B24F0700424F030
:1013700003050C882C4322F002020D8915434A888C
:101380002A43644DA8420BD0684DA84208D06E4D48
:10139000A84205D06D4DA84202D06D4DA8420FD194
:1013A00022F008054A892A4322F004058A882A4344
:1013B00023F4807323F400738D891D43CB892B4361
:1013C00083800483C9888186028430BD70B5028C15
:1013D00022F010020284028C8388048B24F4E044FF
:1013E00024F440760D884FF6FF7404EA0525354352
:1013F00022F020020E8904EA061616434A8804EAFF
:1014000002123243434EB04202D0484EB04217D18E
:1014100022F080024E8904EA0616164326F04006A2
:101420008A8804EA0212324323F4806323F40063BF
:101430008E8904EA86061E43CB8904EA830333437C
:1014400083800583C9880187028470BD70B5028CD2
:1014500022F480720284028C8388848B24F07004CE
:1014600024F003040D88254322F400720E894FF600
:10147000FF7404EA062616434A8804EA022232432D
:10148000244EB04202D0294EB04217D122F4006659
:101490004A8904EA0222324322F480668A8804EAF6
:1014A0000222324323F4805323F400538E8904EA4A
:1014B00006161E43CB8904EA0313334383808583D6
:1014C000C9888187028470BD70B5028C22F4805275
:1014D0000284058C8288838B23F4E04323F44076D6
:1014E0000C884FF6FF7303EA0424344325F40055B7
:1014F0000E8903EA06362E434D8803EA0535354347
:10150000044EB04202D0094EB04226D122F48046A9
:101510008A891FE0002C01400004004000080040C0
:10152000000C004000100040001400400034014056
:10153000004C0140005001400054014000180040A0
:10154000001C0040002000400040014000440140D9
:101550000048014003EA8212324382808483C988B2
:10156000A0F84010058470BD828B22F44062828313
:10157000828B4FF6FF7303EA01210A43828370478F
:10158000F0B5048C24F480540484868B048C4FF6CC
:10159000FF7505EA013726F4734605EA0222324355
:1015A00005EA03331343F74A90420ED0F64A9042BD
:1015B0000BD0B0F1804F08D0F44A904205D0F44AE5
:1015C000904202D0F34A904205D124F400513943AD
:1015D00041F4805104E024F402420A4342F4805171
:1015E00083830184F0BD828B22F00C028283828B84
:1015F0000A4382837047F0B5048C24F48074048419
:10160000858B048C4FF6FF7707EA012625F0F3055A
:1016100007EA031313432B43DA4A90420ED0DA4A07
:1016200090420BD0B0F1804F08D0D84A904205D0FC
:10163000D74A904202D0D74A904205D124F4007193
:10164000314341F4807104E024F420620A4342F4FF
:10165000807183830184F0BD028B22F44062028397
:10166000028B4FF6FF7303EA01210A43028370479E
:10167000F0B5048C24F010040484068B048C4FF61F
:10168000FF7505EA011726F4734605EA0333334371
:1016900005EA02221A43BB4B98420ED0BA4B98423D
:1016A0000BD0B0F1804F08D0B84B984205D0B84B62
:1016B000984202D0B74B984205D124F0200139431B
:1016C00041F0100104E024F0A0030B4343F01001AB
:1016D00002830184F0BD028B22F00C020283028B94
:1016E0000A430283704770B5048C24F0010404841B
:1016F000058B048C25F0F3054FF6FF7606EA0313FD
:1017000013432B439F4A90420ED09F4A90420BD0E6
:10171000B0F1804F08D09D4A904205D09C4A90423B
:1017200002D09C4A904205D124F002020A4342F0C2
:10173000010104E024F00A020A4342F0010103839C
:10174000018470BD70B505460C468E48854209D0AF
:101750008D48854206D0B5F1804F03D08B48854235
:1017600000D08B4820886188A288238958B104283A
:1017700011D0082817D02846FFF702FFE188284635
:10178000BDE87040F0E62846FFF7ADFFE188284647
:10179000BDE870409FE72846FFF76AFFE1882846CA
:1017A000BDE8704058E72846FFF725FFE188284646
:1017B000BDE8704017E72DE9F04107460C460025CB
:1017C00001266188002900D10225A288012A00D1C2
:1017D00002262088238988B13846FFF749FFE1882F
:1017E0003846FFF739FF2389324629463846FFF746
:1017F0007AFFE1883846BDE8F0416CE73846FFF7EC
:1018000072FFE1883846FFF766FF23893246294692
:101810003846FFF72DFFE1883846BDE8F0411BE769
:1018200010B50A884B88CC881A438B8823431A4307
:101830000B891A434B8989891A430A43A0F844202B
:1018400010BD4FF6FF71818000210180C180418071
:10185000017270470021018041808180C180018137
:1018600041818181C1817047002101804180012235
:101870008280C18001817047002101804180818088
:10188000C1800181418181817047002904D0018894
:1018900041F0010101807047018821F001010180C0
:1018A0007047002905D030F8441F41F40041018001
:1018B000704730F8441FC1F30E0101807047002AC1
:1018C00003D082890A438281704782898A43828158
:1018D0007047818270471143A0F848107047002A72
:1018E00003D082890A438281704782898A43828138
:1018F0007047018921F0070101817047028922F0B8
:1019000070020A430281704700B503461846FFF78C
:10191000F5FF188940F00700188100BD70B50D462D
:1019200004461146602D0CD001222046FFF7DBFE55
:1019300029462046FFF7E2FF208940F0070020817A
:1019400070BD01222046FFF793FEF1E730B5048910
:10195000E4B24FF6FF7505EA032313430B43234319
:10196000038130BD10B504462046FFF7EFFF208904
:1019700020F0070040F0070020F0700040F07000F9
:10198000208110BD002C01400034014000040040C3
:1019900000080040000C004010B504462046FFF748
:1019A000D5FF208940F480402081EAE701858282CA
:1019B0007047028822F070020A430280704770B5B7
:1019C0000589048B068C25F007050D434FF6FC4175
:1019D0000C4040F201110C4326F022064FF6FF7135
:1019E00001EA03111143314305810483018470BD71
:1019F000028B22F070020A4302837047028B22F4AA
:101A0000E0424FF6FF7303EA01211143018370475F
:101A1000828B22F070020A4382837047828B22F409
:101A2000E0424FF6FF7303EA0121114381837047BF
:101A3000002904D0018841F08001018070470188AD
:101A400021F0800101807047002904D0818841F095
:101A5000040181807047818821F0040181807047F2
:101A6000002904D0818841F0080181807047818875
:101A700021F0080181807047002904D0818841F05D
:101A8000010181807047818821F0010181807047C8
:101A9000028B22F008020A4302837047028B22F471
:101AA00000624FF6FF7303EA01211143018370477F
:101AB000828B22F008020A4382837047828B22F4D1
:101AC00000624FF6FF7303EA0121114381837047DF
:101AD000028B22F004020A4302837047028B22F435
:101AE00080624FF6FF7303EA0121114301837047BF
:101AF000828B22F004020A4382837047828B22F495
:101B000080624FF6FF7303EA01211143818370471E
:101B1000028B22F080020A4302837047028BC2F3D9
:101B20000E024FF6FF7303EA012111430183704750
:101B3000828B22F080020A4382837047828BC2F339
:101B40000E024FF6FF7303EA0121114381837047B0
:101B5000028C22F002020A4302847047028C22F0B7
:101B600008020A4302847047028C22F020024FF6DA
:101B7000FF7303EA0111114301847047028C22F0C4
:101B800080024FF6FF7303EA01111143018470478D
:101B9000028C22F400724FF6FF7303EA0121114315
:101BA00001847047028C22F400624FF6FF7303EA4F
:101BB0000121114301847047028C22F400524FF638
:101BC000FF7303EA013111430184704710B501230B
:101BD0008B40048C9C430484038C8A40134303840D
:101BE000CFE610B504238B40048C9C430484038C03
:101BF0008A4013430384C4E630B500F1180301247E
:101C00008C40058CA5430584002911D008290FD0EC
:101C1000091FC1F34E001844016821F4E04101603E
:101C200001684FF6FF7303EA02221143016030BDE1
:101C300003EB5100016821F070010160016811435C
:101C4000016030BD002904D0018841F0020101800B
:101C50007047018821F0020101807047002904D0FB
:101C6000018841F0040101807047018821F00401DE
:101C700001807047002904D0818841F08001818073
:101C80007047818821F0800181807047028822F0AE
:101C90000802028002880A4302807047828822F08C
:101CA0007002828082880A4382807047028922F013
:101CB0000702028102890A4302817047028922F0E9
:101CC0008002028102890A43028170478184704741
:101CD000818570478186704701877047818770478B
:101CE000A0F840107047028822F4407202800288F7
:101CF0000A4302807047808E7047008F7047808F44
:101D00007047B0F840007047808C7047008D704776
:101D100002460020128A0A4200D001207047C943BF
:101D20000182704702460020138A0B4092890A40C4
:101D3000002B02D0002A00D001207047C943018245
:101D40007047000010B5E14988420AD101218C0397
:101D50002046FFF7A0F92046BDE810400021FFF71C
:101D60009AB9DB4988420AD101214C042046FFF789
:101D70009DF92046BDE810400021FFF797B9D549ED
:101D800088420AD101218C042046FFF78FF92046B2
:101D9000BDE810400021FFF789B9CF4988420AD138
:101DA0000121CC042046FFF781F92046BDE8104010
:101DB0000021FFF77BB9C94988420AD101210C05EE
:101DC0002046FFF773F92046BDE810400021FFF7D9
:101DD0006DB910BD30B585B004460D46208A4CF66D
:101DE000FF710840E98801432182A0894EF6F31172
:101DF0000840A9882A8911436A8902431143A181B5
:101E0000A08A4FF6FF410840A9890143A182684694
:101E1000FFF7D3F8AD48844201D1039800E002985F
:101E2000A189090408D500EBC00101EB0010296865
:101E30004900B0FBF1F007E000EBC00101EB00103E
:101E400029688900B0FBF1F06422B0FBF2F10901CE
:101E50000B096FF018056B4300EB8300A3891D0489
:101E60004FF0320307D503EBC000B0FBF2F000F0F7
:101E70000700084306E003EB0010B0FBF2F000F0AF
:101E80000F000843208105B030BD4FF416510160AA
:101E900000218180C18001810C22428181817047B3
:101EA00010B5038A4FF2FF0213400A884C88224380
:101EB0008C88C9880C4322431A43028210BD00213A
:101EC000018041808180C1807047002904D08189D0
:101ED00041F4005181817047818921F40051818151
:101EE000704710B540F66A13C1F3421301F01F04A6
:101EF0000121A140012B07D0022B07D014303AB1A9
:101F000002680A43026010BD0C30F8E71030F6E7B3
:101F100002688A43026010BD002A03D0828A0A4305
:101F200082827047828A8A4382827047028A22F0C4
:101F30000F020282028A0A4302827047828922F4D7
:101F40000062828182890A4382817047002904D01D
:101F5000818941F0020181817047818921F002016C
:101F600081817047028A22F020020282028A0A439B
:101F700002827047002904D0018A41F48041018225
:101F80007047018A21F4804101827047C1F3080142
:101F9000818070478088C0F308007047818941F0D4
:101FA000010181817047028BD2B20283028B42EA27
:101FB000012101837047028B02F47F420283028B6E
:101FC0000A4302837047002904D0818A41F020012E
:101FD00081827047818A21F0200181827047002927
:101FE00004D0818A41F0100181827047818A21F0FA
:101FF000100181827047002904D0818A41F00801D4
:1020000081827047818A21F008018182704700290E
:1020100004D0818941F40041818170478189C1F3F5
:102020000E0181817047002904D0818A41F400614A
:1020300081827047818A21F4006181827047828A9F
:1020400022F004028282828A0A4382827047002937
:1020500004D0818A41F0020181827047818A21F097
:102060000201818270470246002012880A4200D095
:10207000012070478A05C9430180704770B500246C
:1020800040F66A12C1F3421301F01F05012606FA59
:1020900005F2012B0CD0022B0DD0838A1340090AC4
:1020A0008E40008830400BB100B10124204670BD45
:1020B00083891340F3E7038A1340F0E740F66A127E
:1020C0000A0A01219140C94301807047003801404C
:1020D0000044004000480040004C004000500040D8
:1020E0000948804709480047FEE7FEE7FEE7FEE7AC
:1020F000FEE7FEE7FEE7FEE7FEE7FEE704480549E8
:10210000054A064B704700009103000831010008A2
:102110008001002080070020800300208003002031
:10212000704700000FB4044910B503AA029800F0EC
:10213000C5FA10BC5DF814FB4000002070B50446E1
:1021400085690068C10601D5302600E02026C00759
:1021500007D070BDD4E9012130469047206A401C69
:1021600020626D1EF6D570BD70B504468569007895
:10217000C00707D170BDD4E9012120209047206A13
:10218000401C20626D1EF6D570BD2DE9F0474FF062
:10219000000A89460446C0F820A02046E168884726
:1021A000002876D0252806D0D4E901219047206A5E
:1021B000401C2062F1E7E168204600258847C4F80A
:1021C0001CA006460027C4F818A02A2E09D03046C5
:1021D00000F0D9FF38B304EB8708303EC8F8186028
:1021E00019E059F8041B204604EB87029161E1686D
:1021F0008847012F064618D1E069002820DA25F02B
:1022000020051DE0D8F8180000EB800006EB400028
:102210003038C8F818002046E1688847064600F0C4
:10222000B2FF0028EED1012F0AD02E2E08D1204671
:10223000E16888477F1C0646022F45F02005C4DB75
:10224000A069002803DA404245F00105A061E807D3
:1022500001D025F01005B6B1A6F14100192802D829
:10226000203645F400654A463146204625604D46F5
:10227000FDF798FF58B1012806D0ED1D25F00700A5
:1022800000F1080989E704E005F1040985E7304613
:102290008AE7206ABDE8F08770477047704770474B
:1022A00070472DE9FF4F0C461E464FF0FF378BB0AD
:1022B000D2E90001DDF860800A908A46C1F30A5530
:1022C00005B93D46002108464FF00000BAF1000F65
:1022D00000F4400005DA00EB80004FF4400101EA11
:1022E00050004FEA9059B9F1010F00DDB9460A9844
:1022F00050EA4A000ED044F61050A5F2FF3545438F
:102300002F14B8F1000F1ED07542291E1EDDC9F131
:1023100000021CE0B8F1010F4FF0000001D03021A5
:1023200003E0F24305E02154401CB042FBDB3046A1
:102330000022002121540B99C1F80880C1E9002036
:102340000FB0BDE8F08FBD1B6D1CDEE74A4600DA1A
:10235000694206A800F066FA06AB93E8070003ABF3
:1023600083E8070050460A9900F03EFB8DE807001D
:10237000A0F500501F3800900398002D09DD42F2AF
:102380001F014A46084403A90390684600F09DFDDA
:1023900008E0A0F500504A461F3803A9039068469C
:1023A00000F0A7FD8DE807000004000C03D04FF0FB
:1023B000FF30410800E01046B8F1000F03D00022C2
:1023C000009215461EE0751E05D400F08DF93032DE
:1023D00062556D1EF9D5B3460122084302D0002292
:1023E0007F1C04E02078302801D100227F1E002AC3
:1023F000099786D01DE0112D07DA00F075F930320B
:1024000062556D1C50EA0102F5D1084302D00098D4
:10241000C8B10EE00021681E05E0235C625C6354D5
:102420002254401E491C8142F7DBAB46A81B401ECC
:102430000990002004F80B000B98099AC0F8088056
:10244000C0E9002B7CE711264FF0000859E72DE981
:10245000F04F88460446D21D22F0070191B0D1E921
:102460000001CDE90A0100F07AFE02460B98C00F88
:1024700001D02D2007E02068810701D52B2002E044
:10248000202101EAC000032A099001D0072A05DBB8
:1024900003464146204600F085F90BE1207880068E
:1024A00001D5E06900E00620B8F1650F814606D04D
:1024B000B8F1660F18D0B8F1670F70D131E0002085
:1024C000B9F1110F009001DB112301E009F10103C3
:1024D0000AAA01A90CA8FFF7E4FEDDE90C700026AA
:1024E00009F10105834647E001204B4600904FF07B
:1024F00000470AAA01A90CA8FFF7D3FEDDE90DB039
:102500000C995D46002610B909F101000D18B9EBD0
:10251000050003D4C0F1FF3609F10105A5EB090060
:102520002BE0B9F1010F01DA4FF001090020B9F1F8
:10253000110F0090484601DD112300E003460AAA6E
:1025400001A90CA8FFF7ADFEDDE90C704D46002691
:102550008346207800070AD4AB4500DA5D4601A81F
:10256000012D04DD411911F8011C302907D04F4518
:1025700002DA17F1040F04DA012082460FE06D1E23
:10258000EEE7002F02DCED1B3E4403E0781CA8427E
:1025900000DD7D1CB81B00F1010A4FF000472078D8
:1025A000000703D4AA4501DB4FF0FF3A0021B7F141
:1025B000004F0DF143088DF8431024D002202B2347
:1025C000002F01DA7F422D230A21021EA0F1010013
:1025D00000DC5FB197FBF1FC97FBF1F201FB1C7C87
:1025E00017460CF1300C08F801CDEEE7A8F1010018
:1025F00003702188090501D5452100E06521A0F17E
:10260000010800F8011C09980FA9A1EB0807FF1D9C
:1026100000B10120411901EBEA70A1693844081AA0
:10262000401EA0612078C00602D42046FFF786FD38
:10263000099828B1D4E901219047206A401C206202
:102640002078C00622D52046FFF778FD1EE0002E38
:1026500004DBB34502DD01A8805D00E03020D4E951
:1026600001219047206A401C2062761CAAF10100DB
:102670005FEA000A0AD100F033F8C0680168405CE4
:10268000D4E901219047206A401C2062281EA5F150
:102690000105DCDC07E0D4E9012118F8010B9047C3
:1026A000206A401C2062381EA7F10107F3DC204697
:1026B000FFF75AFD032011B043E60000074B70B549
:1026C0000D467B4400F05BF80446284600F018F9FC
:1026D00010B14FF0FF3070BD204670BDE5E2FFFF46
:1026E000004870474001002030B5B0F10A024FEABF
:1026F000900E71F100034EEA817EB0EB0E0061EBAB
:1027000091014FEA101E4EEA017E10EB0E0041EBE4
:1027100011114FEA102E4EEA016E10EB0E0041EB44
:1027200011214FEA104E4EEA014E10EB0E0041EB24
:102730001141401841F100014FEAD00040EA4170D8
:102740004FEAD10110EB80054FEA810444EA90740E
:1027500044EB01046D1944EB0404521BA3414FF0F8
:10276000000348BF0A3200D530BD401C41F10001D2
:1027700030BD000001694A1C02610878704700B54D
:102780008FB0CDE901310021059105497944CDE9AA
:10279000031011466846FFF7F8FC0FB000BD0000BB
:1027A000E5FFFFFF2DE9F0411F46044603260168BF
:1027B000072A01F4006004DB08B116A505E016A5A0
:1027C00003E008B115A500E015A521F01000206078
:1027D000A069C01EA0610FB1401EA0612046FFF796
:1027E000ADFC4FB1D4E9012138469047206A401C26
:1027F0002062C01C206206E0206AFAE7D4E90121C9
:1028000015F8010B9047761EF8D22046FFF7ACFC76
:10281000BDE8F0814E414E006E616E00494E4600AB
:10282000696E66002DE9F047814616468AB0334846
:1028300078440DC88DE80D0030487844801C03AC06
:102840000DC884E80D0041F69B300844372190FB09
:10285000F1F290FBF1F5A5F1800501FB12041B3CA0
:1028600002D56442012000E00020DFF890A08046FD
:102870000027FA44AAF1BE0A0DE0E00709D032466B
:10288000684607EB47010AEB810100F032FB8DE857
:10289000070064107F1C002CEFD1184F7F44AC3F21
:1028A00018E0E80714D007EB04100DF1180A90E8BF
:1028B0000E008AE80E00C068F04201D19819089015
:1028C000324606A903A800F014FB03AB83E8070017
:1028D0006D10641C002DE4D132466946B8F1000F3A
:1028E00003A802D000F0F1FA01E000F002FBC9E910
:1028F0000001C9F808200AB0BDE8F0879011000077
:10290000007B00F0800070470048704720010020E5
:102910007546FFF7F9FFAE4605006946534620F0BD
:102920000700854618B020B5FFF7E8FBBDE820405A
:102930004FF000064FF000074FF000084FF0000B7B
:1029400021F00701AC46ACE8C009ACE8C009ACE82E
:10295000C009ACE8C0098D4670470446AFF300805B
:102960002046FDF739FC00004FF0013C50F8042BE5
:1029700051F8043B9A4221D1A2EB0C03934313EA92
:10298000CC1317D150F8042B51F8043B9A4215D1BF
:10299000A2EB0C03934313EACC130BD150F8042B96
:1029A00051F8043B9A4209D1A2EB0C03934313EA7A
:1029B000CC13DBD04FF00000704700BFD01A01BA33
:1029C000B1FA81F101F0180122FA01F0CB40C1F116
:1029D0002001DBB2C0B2C01A2CFA01F3D11A914324
:1029E00011EAC311E6D170475FEA400C08BF91F0CD
:1029F000000F4FEA8C234FEAC12243EA51514FEABC
:102A00001C5018BF00F5F0404FEA300018BF41F0ED
:102A100000415FEA6C5C00F02980BCF1FF3F08BF19
:102A200040F080407047130C06BF12044FF0100CAA
:102A30004FF0000C130E04BF12020CF1080C130F20
:102A400004BF12010CF1040C930F04BF92000CF1AF
:102A5000020CD30F04BF52000CF1010C11464FF0D1
:102A60000002A0F11F00A0EB0C00704711F0004F16
:102A700008BF704731F000413FF4D5AF0B0C06BFE3
:102A800009044FF0100C4FF0000C0B0E04BF0902AC
:102A90000CF1080C0B0F04BF09010CF1040C8B0F97
:102AA00004BF89000CF1020CCB0F04BF49000CF1EC
:102AB000010CCCF12003A0EB0C0022FA03F302FA84
:102AC0000CF241EA030100F10100704720F07F4C55
:102AD00080EA030023F07F47ACEB070303F57C5348
:102AE00000F0004003F1FF032DE980494FEA154B48
:102AF00009B44FEA144325EA0B4E24EA03480FF2C7
:102B0000042606EB132749083E785FEA320203FBEE
:102B10000667C7F5000707FB06F64FEA54374FEA8A
:102B2000D64606F1020607FB066CCCF1005C4FEAC4
:102B30001C472CEA074C07FB06F40CFB06F504EBDC
:102B400015464FEA961634BF00204FF000404FEA7A
:102B5000D13706FB07FC4FEA1C4C0CFB0BF7D21BD2
:102B600003FB0CF761EB07010CFB0EF7B0EB074022
:102B700072EB17420CFB08F734BFA2EB0742B2EB33
:102B8000074261EB17414FEA0C444FEA910706FBFD
:102B900007FC4FEA1C4C0CFB0BF7B0EBC74072EB89
:102BA000573203FB0CF734BFA2EBC742B2EBC7426C
:102BB00061EB57310CFB0EF7B0EBC70072EB5772AD
:102BC0000CFB08F734BFA2EBC702B2EBC70261EB04
:102BD0005771039F4FEA816141EA921104EBCC04E3
:102BE0004FEAD1374FEA826206FB07FC42EA9012B5
:102BF0004FEA80604FEA1C4C0CFB0BF7D21B03FB27
:102C00000CF761EB07010CFB0EF7B0EB074072EB22
:102C100017420CFB08F734BFA2EB0742B2EB0742A6
:102C200061EB17414FEA8C554FEA910704EB9C2466
:102C300006FB07FC4FEA1C4C0CFB0BF7B0EBC74044
:102C400072EB573203FB0CF734BFA2EBC742B2EB77
:102C5000C74261EB57310CFB0EF7B0EBC70072EBCC
:102C600057720CFB08F734BFA2EBC702B2EBC702E6
:102C700061EB577115EB4C254FEA816141EA9211E6
:102C80004FEA82624FEAD13742EA901206FB07FC14
:102C900044F100044FEA80604FEA1C4C0CFB0BF738
:102CA000D21B03FB0CF761EB07010CFB0EF7B0EB3B
:102CB000074072EB17420CFB08F734BFA2EB074248
:102CC000B2EB074261EB174115EB1C154FEA81315E
:102CD00041EA92414FEA823242EA90424FEA803022
:102CE0004FEA0C7644F1000448EA03434EEA0B48ED
:102CF0004FF0000EB2EB080C71EB030724BF6246E5
:102D000039464EEB0E0E4FF0000B00185241494170
:102D10004BEB0B0BB2EB080C71EB03077BF1000BD9
:102D200024BF624639464EEB0E0E4FF0000B0018E2
:102D3000524149414BEB0B0BB2EB080C71EB030713
:102D40007BF1000B24BF624639464EEB0E0E51EA72
:102D5000020718BF46F0010616EB0E7655F1000289
:102D600054F1000103D5BDE88901BDE80088BDE844
:102D70008901BDE80048B619524141EB0101A3F1B8
:102D80000103704780807F7E7D7C7B7A79787776BF
:102D900076757473727171706F6E6E6D6C6C6B6A38
:102DA0006A696868676666656464636362616160D6
:102DB000605F5F5E5E5D5D5C5C5B5B5A5A59595853
:102DC00058575756565555555454535352525251BD
:102DD000515050504F4F4F4E4E4D4D4D4C4C4C4B13
:102DE0004B4B4A4A4A49494948484847474747465A
:102DF0004646454545444444444343434342424296
:102E000042414141002B26D4770021D01CB54FEA26
:102E1000370703B44FF010004FF010014FF00000DF
:102E20000FBCBDE810400BF1010BBBF1010F08BF57
:102E30005FEA170722BF12F1010211F101014FF001
:102E4000004143F1000300F0004043EA00007047F6
:102E5000F9D35708DAE746EA064613F1400F4FEA7E
:102E600016461FDD13F1200FDFBF16430A4600216F
:102E700020335B42C8D0C3F1200746EA064602FA77
:102E800007F74FEA164646EA0706C3F1200722FA7B
:102E900003F201FA07F721FA03F14FF0000342EAC7
:102EA0000702B1E746EA020646EA06464FEA164638
:102EB00046EA0106BCBF46EA0646360C4FF0000360
:102EC0004FF000024FF000019EE72DE9C048934605
:102ED00030B491E8380007C831EA400C48BF34EA02
:102EE000430C03D5FFF7F2FDFFF78CFFF0BCBDE804
:102EF00000882DE9C048934630B491E8380007C8EF
:102F000010F0804F08BF13F0804F03D100F005F898
:102F1000FFF778FFF0BCBDE8008820F07F4780EA2B
:102F2000030023F07F4C07EB0C03A3F57C5300F068
:102F30000040A3F1FE0392F0000F00F0B38095F083
:102F4000000F00F077802DE901494FEA11404FEA68
:102F5000144621EA004800FB06FC24EA064708FB69
:102F600006F607FB08F800FB07F718EB06484CEBE2
:102F7000164C4FEA124B18EB07484FEA15464CEB3C
:102F8000174022EA0B4E0BFB06FC25EA06470EFB18
:102F900006F607FB0EFE0BFB07F71EEB064E4CEB8F
:102FA000164C4FF000061EEB074E4CEB174B18EB80
:102FB0000B0840F1000018EB0E0B58EB000840F135
:102FC00000008F1A4FF000013CBFC943661B14BFBD
:102FD000B5EB040C00213CBFC943F61B4FEA174474
:102FE0004EEA8E0E27EA04454FEA1C4704FB0762AF
:102FF0002CEA074C05FB07F70CFB05F604FB0CFC61
:1030000016EB074642EB174216EB0C4642EB1C420E
:103010001BEB060658EB0202414146EA9E0601D52B
:10302000BDE80189B619524141EB0101A3F1010349
:10303000BDE801894FEA14454FEA114724EA0546E5
:1030400021EA074C05FB07F406FB07F70CFB06F12A
:1030500005FB0CFC11EB074144EB17444FEA124708
:1030600011EB0C4144EB1C4422EA074C05FB07F230
:1030700006FB07F70CFB06F605FB0CFC16EB0746F8
:1030800042EB174216EB0C4642EB1C456A1854F112
:10309000000148BF7047B619524141EB0101A3F14D
:1030A0000103704795F0000F37D04FEA11424FEA05
:1030B000144721EA024624EA074C02FB07F106FB0B
:1030C00007F70CFB06F402FB0CFC14EB074441EB86
:1030D00017414FEA154714EB0C4441EB1C4125EA1C
:1030E000074C02FB07F506FB07F70CFB06F602FB95
:1030F0000CFC16EB074645EB174516EB0C4645EB6B
:103100001C42121951F1000148BF7047B6195241D3
:1031100041EB0101A3F1010370474FEA14454FEA67
:10312000114724EA054621EA074C05FB07F106FB97
:1031300007F70CFB06F24FF0000605FB0CFC12EB48
:10314000074241EB174112EB0C4251EB1C4148BFC7
:103150007047921841EB0101A3F101037047490048
:1031600050EAC12018BF04204A0D18BF40F00100EA
:1031700040F2FF72B2EB515F08BF40F0020001283D
:1031800008BF0520704730380A2801D20120704757
:103190000020704710B500290AD00878002807D011
:1031A00005487844FFF7E0FB002801D0002010BD5F
:1031B0000248784410BD00005A0800005208000080
:1031C00021F00042A2F16052B2F5801F01F00043ED
:1031D00028BFD2F17F6C0BD95FEA001C43EAC20220
:1031E00042EB507018BF704728BF20F001007047B5
:1031F000B2F5801FBCBF184670474FEA410C1CF562
:10320000001F02D2084600F022BB70B500F075F92D
:1032100000000089FFF7F6BF4FF00040A0F58000E6
:10322000704700002DE9C04130B4DFF8A0C23CEA8D
:10323000111418BF3CEA131400F0EC8081EA030576
:103240001CEA111444EAD57418BF1CEA131500F0E7
:10325000C780A4EB05044FF0004545EAC12145EACB
:10326000C32341EA505143EA525304F17F74994217
:1032700004F500344FEAC0204FEAC22208BF904252
:1032800000F09C804FEA13650FF24016765D4FEA1E
:10329000134506FB05F7C7F1807706FB07F74FEAF2
:1032A000D737A7FB03687642C8F58038A7FB06CE60
:1032B00038BFA8F1010807FB08E64FF0000EA6FB97
:1032C000028CE6FB03CEDCF1000CCEF1004E38BFE1
:1032D000AEF1010EA6FB0C584FF000074FF00005B1
:1032E000E6FB0E87A1FB08C6A0FB07CE16EB0E0679
:1032F00045F10005E1FB076515F1E04E7EBFA4F541
:1033000080345FEA46066D4116F1800745F10005FD
:103310004FEA17274FEA066647EA0567A6F1DE4639
:10332000B6F1805F4FEA15251FD9384624F0010C0D
:1033300005EBC471BCF1FE6F01EB0C1102D8F0BCBF
:10334000BDE8008124425CBF01F5801E9EEAC47F77
:1033500002D4F0BCBDE80081244238D4F0BCA1F115
:10336000C041BDE8004100F016B94FEAD22242EA5E
:1033700043524FEAD323A7FB02864FEAD02040EA0C
:10338000415007FB03661EEA0E0F4FEAD12105FBF1
:10339000026658BFA6EB0056B6EB00564FEA520E37
:1033A0004EEAC37E18EB0E0E56EB530EBDD518EB4E
:1033B00002085E417F1C55F10005B6E74FF4801509
:1033C0004FF000074FF000064FF00008ADE7F0BCEB
:1033D0004FF0000001F1C04101F00041BDE8008163
:1033E00011EA0C1F0CEA131500D00CE013EA0C1FB5
:1033F00000F025804FF00000F0BC81EA030101F0ED
:103400000041BDE80081F0BCBDE8004181EA030154
:1034100000F0C1B8F0BCBDE8004170B500F06DF837
:10342000097EFC3E00F007B881EA03014FF000007E
:1034300001F00041704781EA030100F0ACB8F0BC34
:10344000BDE800414FF0000021497047FFFDFBF946
:10345000F7F5F4F2F0EEEDEBE9E8E6E4E3E1E0DEC7
:10346000DDDBDAD8D7D5D4D3D1D0CFCDCCCBCAC839
:10347000C7C6C5C4C2C1C0BFBEBDBCBBBAB9B8B760
:10348000B6B5B4B3B2B1B0AFAEADACABAAA9A8A853
:10349000A7A6A5A4A3A3A2A1A09F9F9E9D9C9C9B21
:1034A0009A999998979796959594939392919190CC
:1034B0008F8F8E8E8D8C8C8B8B8A8989888887875D
:1034C0008685858484838382828181800000FF07D2
:1034D0000000F87FB0FA80F310FA03F10AD0C3F1CC
:1034E0001D0303F580634FEA41504FEA035202EB9C
:1034F000D12170474FF0000070470EF1020E2EF000
:10350000030E5EF8046B364205D4012A43EB030533
:1035100015F5001F12D8012841EB010C1CF5001F06
:103520000CD80ED14FEAD17C15F5001F0CEB4C0CDA
:103530000CF1020C08BF4CEBD37C04E04FF0080CFC
:1035400001E04FEAD37C0CEB4C0526FA05F606F0B9
:103550000706B6F1040C06D20EEB860CBDE87040EF
:103560004CF0010C6047DFE80CF0090B02024FF051
:1035700000414FF00000A1F5002170BD1946104632
:10358000012851EB010418BFD4F5001484BF0020BA
:1035900001F0004170BD0808A0F500114FEA3101AB
:1035A0007047000043004FEAD30C4FEA3C0C434005
:1035B0001FBF40070CF1605113F0FE4F70471CF025
:1035C000006F03D100200CF0004170470CF0004365
:1035D00043EA507010B540EACC0000F0F2F800BFAA
:1035E000000000924FEA0001FFF7D5BF4FF0004105
:1035F0004FF00000A1F500217047000090EA010F94
:1036000048BF81F0004100F12E81421A3CBF801A70
:1036100089184FEAD0524FF07F4C1CEA410FA2EBC1
:10362000D15318BF9CEA026F00F03B804FF0004C72
:103630004CEA00204CEA012121FA03FC10EB0C0CAF
:103640001ED202F1FF325FEA1C2040EBC25038BFAD
:1036500070471CF07F0F4FEA400C18BFBCF17F4F42
:1036600038BF7047C3F12003994008BF20F0010024
:10367000BCF17F4F38BF7047A0F1C04000F0E7B801
:103680004FEA3C00000A40EBC25028BF1CF0FF0F7D
:103690004FEA400CE6D018BFBCF17F4F38BF7047EF
:1036A000EAE79CEA026F05D010EA5C0F08BF00F061
:1036B0000040704710B500F084F800BF64FBBE3EC8
:1036C0004FF47F0C1CEAD0121EBF1CEAD11392EA01
:1036D0000C0F93EA0C0F00F0478090EA010F48BFEF
:1036E00042F480724FF0004C4CEA00204CEA012179
:1036F00002EB0302A0FB0113A2F50002002918BF90
:1037000043F001035B0028BF4FEA330342EB224240
:103710005FEA132C4CEBC2502EBFBCEB436FB2F5EB
:103720007C0F70474FEA036CBCF1004F08BF20F0DC
:103730000100B2F57C0F38BF70470BD582F0FF0255
:1037400012F5803FC8BF704700F1C040D8BF00F0FD
:103750000040704700F5000C5FEA4C0C48BF704712
:10376000B0F1C04000F073B890EA010F0CEAD11339
:1037700048BF42F48072624538BF634504D280EA94
:10378000010000F00040704710B500F01AF800BFCB
:103790008900013E00F007B800F009B85FEA410C6B
:1037A0005FEA1C6C08D080EA010000F050B85FEAC4
:1037B000400C5FEA1C6CF6D14FF00040A0F5800091
:1037C00070470EF1020E2EF0030E5EF8044B2442F9
:1037D00004D44FEA4102B2F17F4F11D84FEA4003BF
:1037E000B3F17F4F0CD80ED14FEAD07CB2F17F4FAE
:1037F0000CEB4C0C0CF1020C08BF4CEBD17C04E040
:103800004FF0080C01E04FEAD17C0CEB4C0324FA9A
:1038100003F404F00704B4F1040C06D20EEB840C9C
:10382000BDE810404CF0010C6047DFE80CF00708E1
:1038300002024FF00040A0F5800010BD0846420093
:1038400018BFD2F1807288BF00F0004010BDFF2188
:1038500041EAD050C005704790EA010F48BF81F09F
:1038600000413FF5D2AE421A04D882F00042A0EBEC
:10387000020011444FEAD0524FF07F4C1CEA410F36
:10388000A2EBD15318BF9CEA026F4AD04FF0004C14
:103890004CEA00204CEA012121FA03FCB0EB0C0CAD
:1038A0000FD412F0FE0F36D05FEA4C001DD5001287
:1038B00040EBC25038BF70471CF03F0F18BF704735
:1038C0000BE0A2F101025FEA1C2040EBC25038BFBE
:1038D00070471CF07F0F18BF7047C3F12003994059
:1038E00014BF401E20F00100704780084FEA1223E9
:1038F00008BF7047B0FA80FCA2EB0C02CCF1280C98
:1039000060FA0CF093EA122F04BF00EBC25070472C
:103910004FEAC3707047130A5FEADC1008BF7047B4
:10392000F6E79CEA026F04D010EA5C0F08BF0020A3
:10393000704710B5FFF745FF40DFF63E81F00040CD
:103940007047FEF784BD000002400000000000A0A8
:103950000000000005400000000000C8000000005A
:103960000C4000000000409C0000000019400000D6
:103970000020BCBE0000000034400000BFC91B8E08
:1039800000000004B5400000504BCFD06607E2CFE6
:10399000010000006C4100003E8251AADFEEA73416
:1039A00001000000D9420000DCB5A0E23A301F97C8
:1039B000FFFFFFFFB4450000FD25A0C8E9A3C14FEC
:1039C000FFFFFFFFFF3F000000000080000000003D
:1039D000FF3F00000000008000000000183A0008CF
:1039E00000000020580000006C010008703A000838
:1039F0005800002028070000880100081C00000073
:103A000043000000F8FFFFFF0C0000000E00000064
:103A10000F0000002E000000000000000000000069
:103A20000000000000000000000000000000000096
:103A3000000000000000000000A24A040000000096
:103A4000000000000102030406070809000000004E
:103A50000000000000000000000000000204060852
:103A60000000000001020304010203040607080924
:0400000508000131BD
:00000001FF
