:020000040800F2
:1000000090070020D5010008290E0008510B0008B8
:10001000250E0008890400085315000800000000A0
:10002000000000000000000000000000950F000824
:100030008D040008000000009D0E0008A9100008B3
:10004000EF010008EF010008EF010008EF010008D0
:10005000EF010008EF010008EF010008EF010008C0
:10006000EF010008EF010008EF010008EF010008B0
:10007000EF010008EF010008EF010008EF010008A0
:10008000EF010008EF010008EF010008EF01000890
:10009000EF010008EF010008EF010008EF01000880
:1000A000EF010008EF010008EF010008EF01000870
:1000B000EF010008EF010008EF010008EF01000860
:1000C000EF010008EF010008EF010008EF01000850
:1000D000EF01000831130008EF010008EF010008EC
:1000E000EF010008EF010008EF010008EF01000830
:1000F000EF010008EF010008EF010008EF01000820
:10010000EF010008EF010008EF010008EF0100080F
:10011000EF010008EF010008EF010008EF010008FF
:10012000EF010008EF010008EF010008EF010008EF
:1001300000F002F800F03FF80AA090E8000C8244BA
:100140008344AAF10107DA4501D100F034F8AFF297
:10015000090EBAE80F0013F0010F18BFFB1A43F0A5
:1001600001031847D0190000F0190000103A24BF0D
:1001700078C878C1FAD8520724BF30C830C144BF0C
:1001800004680C607047000000230024002500264E
:10019000103A28BF78C1FBD8520728BF30C148BFEA
:1001A0000B607047642900F07780002070471FB50E
:1001B0001FBD10B510BD00F037F91146FFF7F7FF6E
:1001C00001F068FA00F055F903B4FFF7F2FF03BC41
:1001D00001F0C1F90948804709480047FEE7FEE7FA
:1001E000FEE7FEE7FEE7FEE7FEE7FEE7FEE7FEE7E7
:1001F00004480549054A064B70470000AD10000849
:100200003101000890010020900700209003002099
:1002100090030020704700000FB4044910B503AAF2
:10022000029800F0D3F810BC5DF814FB2C000020FD
:100230002DE9F0410E460446002020622046E16888
:10024000884730B3252805D0D4E901219047206A9A
:10025000401CF2E7E168204600278847050018D0D7
:10026000A5F14100192802D820354FF40067324625
:10027000294620462760FFF795FF40B1012804D0AA
:10028000F61D26F007060836D8E7361DD6E72846BD
:10029000DAE7206ABDE8F0812DE9F0410646002446
:1002A00010687529314616A510D0AFF300800028DC
:1002B00002DA404213A507E031688A0701D512A58A
:1002C00002E0490704D511A5012401E0AFF3008045
:1002D00000210A2206F1240709E0B0FBF2FCB0FB82
:1002E000F2F302FB1C00303078541846491C0028F9
:1002F000F3D123462A463046BDE8F04100F00CB861
:10030000000000002D0000002B0000002000000075
:1003100070477047704770472DE9F0470D46994682
:100320009246044600F124080168880604D5E06975
:1003300021F01001216000E00120A84201DD471BEF
:1003400000E00027A1697A1902EB0900081AA061F0
:100350002078C00602D42046AFF30080002608E0D3
:10036000D4E901211AF806009047206A401C761C47
:1003700020624E45F4DB2078C0060AD52046AFF354
:10038000008006E0D4E9012130209047206A401C1B
:100390002062381EA7F10107F4DC07E0D4E901214F
:1003A00018F805009047206A401C2062281EA5F11D
:1003B0000105F3DC2046AFF300802078000602D56B
:1003C0000220BDE8F0870120FBE70000074B70B575
:1003D0000D467B4400F011F80446284600F020F852
:1003E00010B14FF0FF3070BD204670BDA312000069
:1003F00001694A1C02610878704700B58FB0CDE9E9
:1004000001310021059105497944CDE903101146D8
:100410006846FFF70DFF0FB000BD0000E5FFFFFFCE
:10042000007B00F080007047754600F029F8AE466A
:1004300005006946534620F00700854618B020B5F0
:10044000FFF7D6FEBDE820404FF000064FF0000752
:100450004FF000084FF0000B21F00701AC46ACE86C
:10046000C009ACE8C009ACE8C009ACE8C0098D46D9
:1004700070470446AFF300802046FFF7A5FE00005A
:10048000004870473001002000BFFEE770472DE9AB
:10049000F05F81468A466427B9F1000F09D0B9F1AF
:1004A000010F0AD0B9F1020F0BD0B9F1030F10D12F
:1004B0000BE00024012508260BE002240325042676
:1004C00007E004240525022603E00624072501266B
:1004D00000BF00BF18212A2000F0C8F8804606E0BF
:1004E00018212A2000F0C2F88046781E07B21FB1FA
:1004F00008EA06000028F3D087B121462A2000F040
:10050000B5F84FEA004B29462A2000F0AFF840EA40
:100510000B0BCAF800B00120BDE8F09F0020FBE7FC
:1005200010B508490020FFF7B2FF07490120FFF787
:10053000AEFF06490220FFF7AAFF05490320FFF797
:10054000A6FF10BD000000200400002008000020CD
:100550000C00002010B500247F212A2000F086F82E
:10056000044643F25500844266D1214635A0FFF788
:1005700053FE00F0A1F841F28831002000F08EF91E
:1005800041F28831012000F089F941F288310220DE
:1005900000F084F941F28831032000F07FF9C8218E
:1005A000002000F0A4F9C821012000F0A0F9C82122
:1005B000022000F09CF9C821032000F098F90122E4
:1005C0000221002000F080F801220221104600F0F4
:1005D0007BF801220221084600F076F80122022170
:1005E000032000F071F8002000F01CF9002000F05A
:1005F000C7F8012000F0B0F8002000F0FFF8052255
:100600000221012000F032F90B21002000F0CCF88B
:100610000B21012000F0C8F80B21022000F0C4F8E3
:100620000B21032000F0C0F8002000F085F96420C1
:1006300000F0FCFF012010BD06A0FFF7EDFD00203B
:10064000F9E700000D0A4644433232313420494470
:100650003A2564000D0A4644433232313420496E53
:100660006974204661696C656421210070B5044697
:100670000D4600F055FB6106080E00F021FB00F06E
:100680009FFB284600F01CFB00F09AFB00F048FBA3
:10069000012101EB4401C8B200F012FB00F090FB15
:1006A000012000F0CFFA0602002000F0CBFA06434A
:1006B00000F05CFB304670BD10B54FF400421C21C9
:1006C0002A2000F04DF910BD2DE9F04704460D46F3
:1006D00016464FF000094FF6FF7000EA0530C6F3EA
:1006E000090140EA010919480555304601F0BAF9F7
:1006F00007463A460B460020154901F05BF8154ABB
:1007000002EBC40203C234B1012C0AD0022C0ED079
:10071000032C18D111E04A4614212A2000F020F9B8
:1007200011E04A4615212A2000F01AF90BE04A464A
:1007300016212A2000F014F905E04A4617212A2044
:1007400000F00EF900BF00BFBDE8F08724000020D4
:10075000882A81414800002070B5054600241A21EE
:100760002A20FFF783FF04464FF6FF5004400DB1E7
:1007700044F4007422461A212A2000F0F1F870BDDA
:1007800070B5054600241A212A20FFF76FFF0446A2
:100790004FF2FF7004400DB144F4006422461A2168
:1007A0002A2000F0DDF870BD70B504460D46002625
:1007B0004FF6FF7000EAC52634B1012C0AD0022C96
:1007C0000ED0032C18D111E032461E212A2000F051
:1007D000C7F811E032461F212A2000F0C1F80BE0D3
:1007E000324620212A2000F0BBF805E032462121C4
:1007F0002A2000F0B5F800BF00BF70BD70B50546F7
:1008000000241A212A20FFF731FF04464FF6BF705B
:1008100004400DB144F0400422461A212A2000F081
:100820009FF870BD70B5054600241A212A20FFF7F5
:100830001DFF04464FF67F7004400DB144F0800464
:1008400022461A212A2000F08BF819212A20FFF7CE
:100850000DFF04464FF6FE7004400DB144F0010454
:10086000224619212A2000F07BF870BD2DE9F041C5
:1008700004460E46154600273CB1E00340EA4630E8
:1008800040F40270284387B201E045F402773A460B
:100890001B212A2000F064F8BDE8F08170B5054600
:1008A0000C46FF2C00DC70BD35B1012D0AD0022DA5
:1008B0000ED0032D18D111E0224608212A2000F085
:1008C0004FF811E0224609212A2000F049F80BE0F8
:1008D00022460A212A2000F043F805E022460B2197
:1008E0002A2000F03DF800BF00BF00BFDBE770B575
:1008F00005460C4635B1012D0AD0022D0ED0032D30
:1009000018D111E0224610212A2000F029F811E028
:10091000224611212A2000F023F80BE02246122162
:100920002A2000F01DF805E0224613212A2000F0BD
:1009300017F800BF00BF70BD70B5054600241A212E
:100940002A20FFF793FE04464DF6FF7004400DB1D8
:1009500044F4005422461A212A2000F001F870BD08
:100960002DE9F04105460E46144600F0D9F9690616
:10097000080E00F0A5F900F023FA304600F0A0F9C7
:1009800000F01EFA2712384600F09AF900F018FA23
:10099000E7B2384600F094F900F012FA00F0E6F9F8
:1009A000BDE8F0812DE9F041024600250026002037
:1009B00000230024002791F803C00CF00F0591F8E4
:1009C00003C00CF0100CBCF1000F03D091F802C072
:1009D0004CEA050591F800C0BCF1000F31D0146855
:1009E00000202BE04FF0010C0CFA00F3B1F800C02E
:1009F0000CEA03069E4220D183004FF00F0C0CFA44
:100A000003F7BC4305FA03FC4CEA040491F803C065
:100A1000BCF1280F06D14FF0010C0CFA00FCC2F813
:100A200014C00AE091F803C0BCF1480F05D14FF0A3
:100A3000010C0CFA00FCC2F810C0401C0828D1D3ED
:100A40001460B1F800C0BCF1FF0F34DD5468002021
:100A50002EE000F1080C4FF0010808FA0CF3B1F891
:100A600000C00CEA03069E4221D183004FF00F0C18
:100A70000CFA03F7BC4305FA03FC4CEA040491F8B2
:100A800003C0BCF1280F05D100F1080C08FA0CF8DE
:100A9000C2F8148091F803C0BCF1480F07D100F1EF
:100AA000080C4FF0010808FA0CF8C2F81080401C3E
:100AB0000828CED35460BDE8F0810000F0B50A46A6
:100AC000002300240021002500F00046B6F1004F6D
:100AD00002D11D4EF16901E01B4E7168C0F3034560
:100AE00083B200F44016B6F5401F08D121F07061C2
:100AF000154E766826F07066134F7E6012E000F4A3
:100B00008016B6F5801F06D1032606FA05F4A14328
:100B100041F0706106E0460D360103FA06F6B14376
:100B200041F0706122B1460D360103FA06F63143F9
:100B300000F00046B6F1004F02D1034EF16101E032
:100B4000014E7160F0BD000000000140016170477E
:100B500000BFFEE700B500201049086000F0FEFC71
:100B60000F48006820F470400D490860084600688E
:100B700040F44050086000200A49C1F88C0100F0A0
:100B8000EDFC01200549086000F0E8FC0020054963
:100B9000C1F8900100F0E2FC00BD0000908121420C
:100BA000000C01400080214208B50121082000F01E
:100BB00077F90121084600F073F901210A48FFF78F
:100BC0007DFF1820ADF8000010208DF803000320F1
:100BD0008DF8020069460548FFF7E4FE1821034836
:100BE000FFF7B4FF08BD000000023000000C014018
:100BF00000B500201049086000F0B0FC0F48006804
:100C000020F470400D4908600846006840F44050E8
:100C1000086001200A49C1F88C0100F09FFC012006
:100C20000549086000F09AFC00200549C1F89001D0
:100C300000F094FC00BD000090812142000C0140B6
:100C40000080214210B503460022012019490860A6
:100C50001948006820F47040174908600846006889
:100C600040F400400860002415E05006020E002009
:100C70001049091D086000F071FC01200F49C1F8FE
:100C8000900100F06BFC0B488038006808B1501CE4
:100C9000C2B2601CC4B2082CE7DB00200549091D64
:100CA000086013B9FFF7A4FF01E0FFF753FF1046F8
:100CB00010BD00008C812142000C014000802142C7
:100CC00000B502461348006820F4704011490860DE
:100CD0000846006840F44050086000200E49086053
:100CE000002314E000F03AFCD0090B49091F08600A
:100CF0005006020E01200949C1F8900100F02EFCB7
:100D000000200549086000F029FC581CC3B2082BDC
:100D1000E8DB00BD000C01409081214200802142AF
:100D200000B50F48006820F470400D49086008467F
:100D3000006840F44050086001200A4908600A49F0
:100D4000C1F8900100F00AFC00200649086000F09C
:100D500005FC00200449C1F8900100F0FFFB00BD34
:100D6000000C01408C8121420080214200B51148D5
:100D7000006820F470400F4908600846006840F49D
:100D80004050086000200C49086000F0E7FB00209C
:100D90000A49C1F88C0100F0E1FB01200649086016
:100DA00000F0DCFB01200549C1F88C0100F0D6FB06
:100DB00000BD0000000C01409081214200802142D2
:100DC00000B500221448006820F470401249086001
:100DD0000846006840F40040086001200F490860A0
:100DE00000F0BCFB01200E49C1F8900100F0B6FBF9
:100DF00007E0501CC2B2FA2A03DDFFF7B7FF01205B
:100E000000BD0648803800680028F2D10349091D5A
:100E1000086000BFF4E70000000C01408C81214213
:100E20000080214200BFFEE77047000070B500213E
:100E300000230F22C47804B3154C246804F4E06442
:100E4000C4F5E064210AC1F10403CA40447804FAFD
:100E500003F184781440214309010E4C0678A15512
:100E6000047804F01F050124AC4005786D11AD0035
:100E700005F1E025C5F8004109E0047804F01F05FC
:100E80000124AC40044D0678761145F8264070BD2B
:100E90000CED00E000E400E080E100E070470000BD
:100EA00029B1064A92690243044B9A6104E0034A5D
:100EB00092698243014B9A61704700000010024022
:100EC00030B500210022002400232D4D6D6805F06F
:100ED0000C0121B1042905D0082923D105E0294DB1
:100EE000056022E0274D05601FE0254D6D6805F483
:100EF0007012234D6D6805F48034022505EB924293
:100F00001CB9214D554305600BE01D4D6D6805F47E
:100F100000351DB11C4D5543056002E0194D554388
:100F2000056002E0174D056000BF00BF144D6D68FD
:100F300005F0F0010909154D6B5C0568DD40456061
:100F40000F4D6D6805F4E061090A104D6B5C456852
:100F5000DD4085600A4D6D6805F46051C90A0B4D8E
:100F60006B5C4568DD40C560054D6D6805F440412A
:100F7000890B074D6B5CC568B5FBF3F5056130BDAA
:100F80000010024000127A0000093D0032000020EB
:100F900042000020704710B500F002F810BD0000BC
:100FA0000CB50020019000903348006840F4803078
:100FB0003149086000BF3048006800F400300090FC
:100FC0000198401C0190009818B90198B0F5A06FE5
:100FD000F1D12948006800F4003010B101200090E0
:100FE00001E0002000900098012843D123480068C8
:100FF00040F01000214908600846006820F0030016
:1010000008600846006840F0020008601A4840681E
:10101000194948600846406848600846406840F4FE
:10102000806048600846406820F47C1048600846AC
:10103000406840F4E81048600846006840F080705E
:10104000086000BF0C48006800F000700028F9D06C
:101050000948406820F00300074948600846406896
:1010600040F00200486000BF0348406800F00C00F8
:101070000828F9D10CBD00000010024000200240F9
:10108000042808D14FF0E021096941F004014FF034
:10109000E022116107E04FF0E021096921F004012D
:1010A0004FF0E022116170477047000010B51348FF
:1010B000006840F001001149086008464068104986
:1010C00008400E494860084600680E4908400B4930
:1010D00008600846006820F48020086008464068E0
:1010E00020F4FE0048604FF41F008860FFF753FFB4
:1010F0004FF000600449086010BD0000001002407D
:101100000000FFF8FFFFF6FE08ED00E000B589B033
:101110000121C802FFF7C4FE01210420FFF7C0FE31
:101120004FF40060ADF8200018208DF82300032054
:101130008DF8220008A91948FFF734FC0120ADF80A
:1011400018000020ADF81400ADF81A00ADF8160034
:1011500005A9134800F09AF86020ADF804000120BA
:10116000ADF80600ADF80A000020ADF80C0001A9AA
:101170000B4800F03FF80121094800F02BF8082146
:10118000074800F075F80121054800F00BF801212F
:10119000034800F013F809B000BD0000000801404A
:1011A000002C014021B1028842F08002028004E05C
:1011B00002884FF67F731A400280704721B102887F
:1011C00042F00102028004E002884FF6FE731A40EA
:1011D0000280704731B1B0F8442042F40042A0F8D8
:1011E000442005E0B0F84420C2F30E02A0F84420E9
:1011F0007047000070B5002200230024058C4EF6D5
:10120000FF7635400584038C8488828B48F6FF7511
:101210002A404FF6FF452A400D884FF6FF7606EA32
:1012200005252A434DF6FF752B400D8906EA053545
:101230002B434D8806EA05352B430B4DA84202D0BF
:101240000A4DA84208D14BF6FF752C408D894FF608
:10125000FF7606EA85152C4384808283CD88A0F82A
:101260004050038470BD0000002C01400034014058
:101270000A460021818B4FF2FF7319404FF6FF732E
:1012800003EA022319438183704700000022028889
:101290001D4B98420ED01D4B98420BD0B0F1804FA1
:1012A00008D01B4B984205D01A4B984202D01A4BDB
:1012B000984204D14FF68F731A404B881A43174B4C
:1012C000984207D0164B984204D04FF6FF431A407D
:1012D000CB881A4302808B8883850B8803850A4B51
:1012E00098420BD0094B984208D00E4B984205D03B
:1012F0000D4B984202D00D4B984201D10B7A0386D8
:101300000123838270470000002C0140003401401B
:101310000004004000080040000C004000100040A5
:1013200000140040004001400044014000480140DA
:1013300010B540F225511D4800F04AF810B31B4883
:1013400000F002F9C4B21A48008800F40040C8B99D
:101350001748008800F4804060B10A2C03D00020B8
:101360001349088020E01248008840F400401049EA
:10137000088019E00D2C06D10D48008840F480400B
:101380000B49088010E00A480088C0F30D000949A5
:101390000C5407480088401C05490880084600880E
:1013A000C72801DD0020088010BD00000038014082
:1013B000300000206800002021B1828942F40052F0
:1013C000828104E082894DF6FF731A408281704762
:1013D00070B50246002400230025002040F66A165E
:1013E000B14200D100BFC1F3421501F01F03012635
:1013F00006FA03F3012D02D19689334006E0022D4F
:1014000002D1168A334001E0968A33400C1201263D
:1014100006FA04F41688344013B10CB1012000E040
:10142000002070BDF0B503460024002600250020F2
:1014300040F66A17B94200D100BF1846C1F3421402
:1014400001F01F06012707FA06F5012C01D10C3027
:1014500004E0022C01D1103000E014301AB107680A
:101460002F43076002E00768AF430760F0BD00004C
:101470002DE9F04786B005460E460024A24600BF7F
:10148000A1460027B08900B100BF2F462C8A4CF638
:10149000FF700440F08804432C82AC894EF6F310B0
:1014A0000440B08831890843718908430443AC8102
:1014B000AC8A4FF6FF400440B0890443AC8201A8D7
:1014C000FFF7FEFC1F48874202D1DDF810A001E0C3
:1014D000DDF80CA0A88900F4004040B10AEBCA0076
:1014E00000EB0A1031684900B0FBF1F807E00AEBA5
:1014F000CA0000EB0A1031688900B0FBF1F86420E3
:10150000B8FBF0F004012009642101FB1089A889CF
:1015100000F4004040B1322000EBC900B0FBF1F014
:1015200000F00700044308E0322000EB09106421BA
:10153000B0FBF1F000F00F0004432C8106B0BDE8D1
:10154000F08700000038014001468888C0F3080099
:10155000704700BFFEE7014600BF7047002000BF94
:101560003FE000BF00BF00BF00BF00BF00BF00BF23
:1015700000BF00BF00BF00BF00BF00BF00BF00BF73
:1015800000BF00BF00BF00BF00BF00BF00BF00BF63
:1015900000BF00BF00BF00BF00BF00BF00BF00BF53
:1015A00000BF00BF00BF00BF00BF00BF00BF00BF43
:1015B00000BF00BF00BF00BF00BF00BF00BF00BF33
:1015C00000BF00BF00BF00BF00BF00BF00BF00BF23
:1015D00000BF00BF00BF00BF00BF00BF00BF00BF13
:1015E000401C0228BDD3704710B56FF00400FFF710
:1015F00047FD0A4800680A49B0FBF1F00949087044
:101600000846007800EB4001C1EBC0104FF6FF71B7
:1016100001EAC0000449088010BD0000100000204D
:1016200000127A00280000202A0000200146114AFA
:1016300012884A434FF0E0235A6100229A611A4609
:10164000126942F001021A6100BF4FF0E0221069F6
:1016500000F001021AB100F48032002AF5D04FF0F8
:10166000E022126922F001024FF0E0231A61002209
:101670009A6170472A00002000BF054A128802F0D4
:101680004002002AF9D0C2B2014B1B1D1A807047DC
:101690000038014008B5FFF7A7FF4FF4E13000F034
:1016A00039F8FFF733FDFFF77FFAFEF753FF19E034
:1016B000FEF736FF0C4800684FF47A7148430090FB
:1016C0000A48006800FB01F30948006800FB01F2CA
:1016D00008480068414308A0FEF79EFD4FF4FA70E9
:1016E000FFF7A4FFE4E700000C0000200800002042
:1016F00004000020000000200D0A4348307E3328FB
:101700002564202C202564202C202564202C2025D5
:101710006429000010B586B00446012144F204009B
:10172000FFF7BEFB4FF40070ADF8140003208DF8F6
:10173000160018208DF8170005A91C48FFF732F98C
:101740004FF48060ADF8140004208DF8170005A94F
:101750001648FFF727F925208DF8000003208DF8A3
:1017600001008DF8020001208DF803006846FFF7A4
:101770005DFB01940020ADF80800ADF80A00ADF85B
:101780000C00ADF810000C20ADF80E0001A90848BF
:10179000FFF76EFE012240F225510548FFF742FE99
:1017A00001210348FFF708FE06B010BD0008014004
:1017B000003801402DE9C04130B4DFF8A0C23CEA56
:1017C000111418BF3CEA131400F0EC8081EA030501
:1017D0001CEA111444EAD57418BF1CEA131500F072
:1017E000C780A4EB05044FF0004545EAC12145EA56
:1017F000C32341EA505143EA525304F17F749942A2
:1018000004F500344FEAC0204FEAC22208BF9042DC
:1018100000F09C804FEA13650FF24016765D4FEAA8
:10182000134506FB05F7C7F1807706FB07F74FEA7C
:10183000D737A7FB03687642C8F58038A7FB06CEEA
:1018400038BFA8F1010807FB08E64FF0000EA6FB21
:10185000028CE6FB03CEDCF1000CCEF1004E38BF6B
:10186000AEF1010EA6FB0C584FF000074FF000053B
:10187000E6FB0E87A1FB08C6A0FB07CE16EB0E0603
:1018800045F10005E1FB076515F1E04E7EBFA4F5CB
:1018900080345FEA46066D4116F1800745F1000588
:1018A0004FEA17274FEA066647EA0567A6F1DE46C4
:1018B000B6F1805F4FEA15251FD9384624F0010C98
:1018C00005EBC471BCF1FE6F01EB0C1102D8F0BC4A
:1018D000BDE8008124425CBF01F5801E9EEAC47F02
:1018E00002D4F0BCBDE80081244238D4F0BCA1F1A0
:1018F000C041BDE8004100F016B94FEAD22242EAE9
:1019000043524FEAD323A7FB02864FEAD02040EA96
:10191000415007FB03661EEA0E0F4FEAD12105FB7B
:10192000026658BFA6EB0056B6EB00564FEA520EC1
:101930004EEAC37E18EB0E0E56EB530EBDD518EBD8
:1019400002085E417F1C55F10005B6E74FF4801593
:101950004FF000074FF000064FF00008ADE7F0BC75
:101960004FF0000001F1C04101F00041BDE80081ED
:1019700011EA0C1F0CEA131500D00CE013EA0C1F3F
:1019800000F025804FF00000F0BC81EA030101F077
:101990000041BDE80081F0BCBDE8004181EA0301DF
:1019A00000F0C1B8F0BCBDE8004170B500F06DF8C2
:1019B000097EFC3E00F007B881EA03014FF0000009
:1019C00001F00041704781EA030100F0ACB8F0BCBF
:1019D000BDE800414FF0000021497047FFFDFBF9D1
:1019E000F7F5F4F2F0EEEDEBE9E8E6E4E3E1E0DE52
:1019F000DDDBDAD8D7D5D4D3D1D0CFCDCCCBCAC8C4
:101A0000C7C6C5C4C2C1C0BFBEBDBCBBBAB9B8B7EA
:101A1000B6B5B4B3B2B1B0AFAEADACABAAA9A8A8DD
:101A2000A7A6A5A4A3A3A2A1A09F9F9E9D9C9C9BAB
:101A30009A99999897979695959493939291919056
:101A40008F8F8E8E8D8C8C8B8B8A898988888787E7
:101A50008685858484838382828181800000FF075C
:101A60000000F87FB0FA80F310FA03F10AD0C3F156
:101A70001D0303F580634FEA41504FEA035202EB26
:101A8000D12170474FF0000070470EF1020E2EF08A
:101A9000030E5EF8046B364205D4012A43EB0305BE
:101AA00015F5001F12D8012841EB010C1CF5001F91
:101AB0000CD80ED14FEAD17C15F5001F0CEB4C0C65
:101AC0000CF1020C08BF4CEBD37C04E04FF0080C87
:101AD00001E04FEAD37C0CEB4C0526FA05F606F044
:101AE0000706B6F1040C06D20EEB860CBDE870407A
:101AF0004CF0010C6047DFE80CF0090B02024FF0DC
:101B000000414FF00000A1F5002170BD19461046BC
:101B1000012851EB010418BFD4F5001484BF002044
:101B200001F0004170BD0808A0F500114FEA310135
:101B300070470000541B000800000020480000000F
:101B40006C0100089C1B00084800002048070000AA
:101B500088010008000000000000000000000000F4
:101B60000000000000A24A04000000000000000085
:101B7000010203040607080900000000000000003D
:101B80000000000000000000000001020304010248
:0C1B900003040607080902040608000010
:0400000508000131BD
:00000001FF
