:020000040800F2
:100000009008002005020008A70800089F080008C3
:10001000A3080008ED020008D70F00080000000048
:10002000000000000000000000000000310A00088D
:100030003903000800000000190900089F0B0008A0
:100040001F0200081F0200081F0200081F0200080C
:100050001F0200081F0200081F0200081F020008FC
:100060001F0200081F0200081F0200081F020008EC
:100070001F0200081F0200081F0200081F020008DC
:100080001F0200081F0200081F0200081F020008CC
:100090001F0200081F0200081F0200081F020008BC
:1000A0001F0200081F0200081F0200081F020008AC
:1000B0001F0200081F0200081F0200081F0200089C
:1000C0001F0200081F0200081F0200081F0200088C
:1000D0001F020008B50D00081F0200081F020008DB
:1000E0001F0200081F0200081F0200081F0200086C
:1000F0001F0200081F0200081F0200081F0200085C
:100100001F0200081F020008A90C00081F020008B7
:100110001F0200081F0200081F0200081F0200083B
:100120001F0200081F0200081F0200081F0200082B
:1001300000F002F800F03CF80AA090E8000C8244BD
:100140008344AAF10107DA4501D100F031F8AFF29A
:10015000090EBAE80F0013F0010F18BFFB1A43F0A5
:10016000010318479C280000BC280000103A24BF57
:1001700078C878C1FAD8520724BF30C830C144BF0C
:1001800004680C607047000000230024002500264E
:10019000103A28BF78C1FBD8520728BF30C148BFEA
:1001A0000B6070471FB500F064F81FBD10B510BD9F
:1001B00000F06CF81146FFF7F5FF01F0D9FA00F0F6
:1001C0008AF803B4FFF7F2FF03BC00F006FF00005B
:1001D0000B49D1F800C04A685CF8043B1068184429
:1001E00042F8040B8C4528BFA1F1DC0C8A4228BFE1
:1001F000A1F1DC02C1F800C04A6020F00040704765
:10020000240200200948804709480047FEE7FEE72E
:10021000FEE7FEE7FEE7FEE7FEE7FEE7FEE7FEE7B6
:1002200004480549054A064B70470000ED0B0008DD
:100230003101000890020020900800209004002066
:1002400090040020704700000B4910B5A1F17C021A
:100250000A4CC2E93712372106E000EB104342F89E
:100260002130074B00FB03400B1EA1F10101F4DC20
:1002700010BD0120E8E70000C4010020E119D666A6
:10028000CD0D01007047704770477047754600F00C
:1002900029F8AE4605006946534620F0070085461A
:1002A00018B020B5FFF7BCFFBDE820404FF00006B6
:1002B0004FF000074FF000084FF0000B21F007014E
:1002C000AC46ACE8C009ACE8C009ACE8C009ACE891
:1002D000C0098D4670470446AFF300802046FFF703
:1002E00070FF0000004870472C02002000BFFEE7AE
:1002F0002DE9F0478146484600F01FF80B49086099
:100300000846006802F054F907463A460B4608488A
:10031000084901F0F5FF054601F0C0FF04462146FB
:10032000204602F02BFABDE8F087000044000020D0
:10033000DBF97E6AB8A8AB41704770B5054635B1A8
:10034000012D0FD0022D18D0032D2CD120E000203C
:1003500000F0EEF9C0F30B04012000F0E9F940EAE7
:10036000044421E0022000F0E3F9C0F30B04032071
:1003700000F0DEF940EA044416E0042000F0D8F969
:10038000C0F30B04052000F0D3F940EA04440BE06D
:10039000062000F0CDF9C0F30B04072000F0C8F9E7
:1003A00040EA044400E000BF00BF24F0704420464F
:1003B00070BD10B500F06EF800F09AF87E2000F0E5
:1003C000B7F9044645F2494084425FD1FB2234210B
:1003D000082000F0A3FBFB223421092000F09EFB43
:1003E000FB2234210A2000F099FBFB2234210B2050
:1003F00000F094FB1B220021102000F08FFB1B2239
:100400000021112000F08AFB1B220021122000F0A5
:1004100085FB1B220021132000F080FB02222021FB
:10042000142000F07BFB02222021152000F076FB37
:1004300002222021162000F071FB02222021172029
:1004400000F06CFB002278211E2000F067FB0022E8
:1004500078211F2000F062FB00227821202000F08C
:100460005DFB00227821212000F058FB002211467C
:10047000192000F053FB0D22C2211B2000F04EFB7F
:10048000012214211A2000F049FB01E0012010BDD7
:100490000020FCE77047000010B500200E490860FE
:1004A0000E48006820F470400C4908600846006857
:1004B00040F44050086000200949C1F8AC0100F048
:1004C00011F801200449086000F00CF800200449EC
:1004D000C1F8A80110BD0000A8812142040C014010
:1004E0000080214210B5022000F03AFE10BD00004D
:1004F00008B50121082000F021FA4FF44060ADF862
:10050000000010208DF8030003208DF802006946DA
:10051000044800F02EF94FF44061024800F0BDF9A4
:1005200008BD0000000C014010B500200E49086015
:100530000E48006820F470400C49086008460068C6
:1005400040F44050086001200949C1F8AC01FFF7B0
:10055000C9FF012004490860FFF7C4FF00200449D7
:10056000C1F8A80110BD0000A8812142040C01407F
:100570000080214270B5054600241648006820F42A
:100580007040144908600846006840F40040086064
:10059000002614E0002010490860FFF7A3FF0120A7
:1005A0000E49C1F8A8016006040E0B487C380068AB
:1005B00008B1601CC4B2FFF795FF701CC6B2082ECC
:1005C000E8DB15B9FFF7B0FF01E0FFF765FF204654
:1005D00070BD0000040C0140A8812142008021422E
:1005E00070B504461248006820F470401049086055
:1005F0000846006840F44050086000200D4908603B
:10060000002512E0E0090B49091D08606006040E90
:1006100001200949C1F8A801FFF764FF002005493E
:100620000860FFF75FFF681CC5B2082DEADB70BDEC
:10063000040C0140A88121420080214210B50E48DF
:10064000006820F470400C4908600846006840F4D7
:10065000405008600120094908600949C1F8A80113
:10066000FFF740FF002005490860FFF73BFF00202F
:100670000349C1F8A80110BD040C0140AC8121421E
:100680000080214210B50E48006820F470400C49EB
:1006900008600846006840F440500860002009499E
:1006A00008600949C1F8AC01FFF71CFF01200549AA
:1006B00008600549C1F8AC01FFF714FF10BD000048
:1006C000040C0140A88121420080214210B5002481
:1006D0001448006820F47040124908600846006819
:1006E00040F40040086001200F490860FFF7FAFE5F
:1006F00001200E49C1F8A801FFF7F4FE07E0601CD5
:10070000C4B2FA2C03DDFFF7BDFF012010BD06487F
:10071000803800680028F2D10349091F086000BF33
:10072000F4E70000040C0140AC812142008021422A
:1007300070B50546FFF782FF5420FFF751FFFFF722
:10074000C5FF2846FFF74CFFFFF7C0FFFFF776FF16
:100750005520FFF745FFFFF7B9FF0120FFF70AFF1C
:1007600004020020FFF706FF0443FFF78BFF20463B
:1007700070BD2DE9F041024600250026002000232F
:100780000024002791F803C00CF00F0591F803C076
:100790000CF0100CBCF1000F03D091F802C04CEA31
:1007A000050591F800C0BCF1000F31D0146800209D
:1007B0002BE04FF0010C0CFA00F3B1F800C00CEA8A
:1007C00003069E4220D183004FF00F0C0CFA03F772
:1007D000BC4305FA03FC4CEA040491F803C0BCF1E5
:1007E000280F06D14FF0010C0CFA00FCC2F814C01F
:1007F0000AE091F803C0BCF1480F05D14FF0010C9D
:100800000CFA00FCC2F810C0401C0828D1D31460B8
:10081000B1F800C0BCF1FF0F34DD546800202EE0B9
:1008200000F1080C4FF0010808FA0CF3B1F800C011
:100830000CEA03069E4221D183004FF00F0C0CFA04
:1008400003F7BC4305FA03FC4CEA040491F803C027
:10085000BCF1280F05D100F1080C08FA0CF8C2F819
:10086000148091F803C0BCF1480F07D100F1080CC7
:100870004FF0010808FA0CF8C2F81080401C082854
:10088000CED35460BDE8F0810246002093680B404F
:100890000BB1012000E0002070470161704700BFEC
:1008A000FEE700BFFEE7704770B5002100230F226E
:1008B000C47804B3154C246804F4E064C4F5E0641F
:1008C000210AC1F10403CA40447804FA03F1847890
:1008D0001440214309010E4C0678A155047804F018
:1008E0001F050124AC4005786D11AD0005F1E02530
:1008F000C5F8004109E0047804F01F050124AC406C
:10090000044D0678761145F8264070BD0CED00E0E8
:1009100000E400E080E100E07047000029B1064AF1
:10092000D2690243044BDA6104E0034AD26982438C
:10093000014BDA61704700000010024029B1064AFD
:1009400092690243044B9A6104E0034A926982432C
:10095000014B9A61704700000010024030B5002141
:100960000022002400232D4D6D6805F00C0121B1FB
:10097000042905D0082923D105E0294D056022E08E
:10098000274D05601FE0254D6D6805F47012234D5D
:100990006D6805F48034022505EB92421CB9214DA7
:1009A000554305600BE01D4D6D6805F400351DB124
:1009B0001C4D5543056002E0194D5543056002E0AA
:1009C000174D056000BF00BF144D6D6805F0F001C4
:1009D0000909154D6B5C0568DD4045600F4D6D687C
:1009E00005F4E061090A104D6B5C4568DD408560E7
:1009F0000A4D6D6805F46051C90A0B4D6B5C456882
:100A0000DD40C560054D6D6805F44041890B074D1B
:100A10006B5CC568B5FBF3F5056130BD00100240A5
:100A200000127A0000093D002E0000203E00002048
:100A3000704710B500F002F810BD00000CB50020A2
:100A4000019000903348006840F4803031490860DC
:100A500000BF3048006800F4003000900198401C4E
:100A60000190009818B90198B0F5A06FF1D129480C
:100A7000006800F4003010B10120009001E0002077
:100A800000900098012843D12348006840F01000EE
:100A9000214908600846006820F003000860084605
:100AA000006840F0020008601A4840681949486030
:100AB0000846406848600846406840F480604860E6
:100AC0000846406820F47C1048600846406840F4BE
:100AD000E81048600846006840F08070086000BF79
:100AE0000C48006800F000700028F9D00948406800
:100AF00020F00300074948600846406840F00200C3
:100B0000486000BF0348406800F00C000828F9D195
:100B10000CBD0000001002400020024070B50646E7
:100B20000C461546FFF78AFD5420FFF759FDFFF7E5
:100B3000CDFD18B1FFF7A6FD012070BD3046FFF7CF
:100B40004FFDFFF7C3FD2046FFF74AFDFFF7BEFD4F
:100B500018B1FFF797FD0120EFE72846FFF740FDAA
:100B6000FFF7B4FD18B1FFF78DFD0120E5E7FFF7B2
:100B700089FD0020E1E7042808D14FF0E021096950
:100B800041F004014FF0E022116107E04FF0E02155
:100B9000096921F004014FF0E022116170477047AC
:100BA00010B500F095FA4FF4165001F027FB00BF86
:100BB000FFF7FFFB0028FBD14FF4487000F0AAFAC2
:100BC000002407E02046FFF793FB074941F8240083
:100BD000601CC4B2042CF5DB41F61F4140F2F31057
:100BE00000F034F810BD00006000002010B513487C
:100BF000006840F00100114908600846406810494B
:100C000008400E494860084600680E4908400B49F4
:100C100008600846006820F48020086008464068A4
:100C200020F4FE0048604FF41F008860FFF701FFCA
:100C30004FF000600449086010BD00000010024041
:100C40000000FFF8FFFFF6FE08ED00E07FB5054667
:100C50000C4601210820FFF761FEADF80850ADF801
:100C600004400020ADF80A00ADF8060001A90D48C7
:100C700000F04EF8012211460A4800F03FF83220F9
:100C80008DF8000000208DF8010001208DF8020091
:100C90008DF803006846FFF707FE0121014800F0C8
:100CA00021F87FBD000C004010B50C48008800F012
:100CB000010060B1002407E02046FFF719FB084956
:100CC00041F82400601CC4B2042CF5DB00BF0348CB
:100CD000008820F001000149088010BD100C004080
:100CE0007000002021B1028842F00102028004E07D
:100CF00002884FF6FE731A40028070471AB183894A
:100D00000B43838102E083898B438381704700001A
:100D1000002202881D4B98420ED01D4B98420BD0EA
:100D2000B0F1804F08D01B4B984205D01A4B984227
:100D300002D01A4B984204D14FF68F731A404B8859
:100D40001A43174B984207D0164B984204D04FF6DF
:100D5000FF431A40CB881A4302808B8883850B8817
:100D600003850A4B98420BD0094B984208D00E4B92
:100D7000984205D00D4B984202D00D4B984201D1BC
:100D80000B7A03860123838270470000002C014008
:100D9000003401400004004000080040000C004006
:100DA0000010004000140040004001400044014099
:100DB0000048014010B540F225511D4800F04AF8A6
:100DC00010B31B4800F002F9C4B21A48008800F4BE
:100DD0000040C8B91748008800F4804060B10A2C70
:100DE00003D000201349088020E01248008840F416
:100DF00000401049088019E00D2C06D10D480088EC
:100E000040F480400B49088010E00A480088C0F395
:100E10000D0009490C5407480088401C054908800A
:100E200008460088C72801DD0020088010BD0000AA
:100E3000003801402C0000208000002021B1828970
:100E400042F40052828104E082894DF6FF731A4019
:100E50008281704770B502460024002300250020DF
:100E600040F66A16B14200D100BFC1F3421501F04D
:100E70001F03012606FA03F3012D02D196893340A0
:100E800006E0022D02D1168A334001E0968A3340F3
:100E90000C12012606FA04F41688344013B10CB182
:100EA000012000E0002070BDF0B5034600240026BC
:100EB0000025002040F66A17B94200D100BF18464D
:100EC000C1F3421401F01F06012707FA06F5012CB1
:100ED00001D10C3004E0022C01D1103000E01430BC
:100EE0001AB107682F43076002E00768AF43076045
:100EF000F0BD00002DE9F04786B005460E460024FF
:100F0000A24600BFA1460027B08900B100BF2F460E
:100F10002C8A4CF6FF700440F08804432C82AC8984
:100F20004EF6F3100440B0883189084371890843B4
:100F30000443AC81AC8A4FF6FF400440B0890443BF
:100F4000AC8201A8FFF70AFD1F48874202D1DDF8F5
:100F500010A001E0DDF80CA0A88900F4004040B129
:100F60000AEBCA0000EB0A1031684900B0FBF1F847
:100F700007E00AEBCA0000EB0A1031688900B0FBF9
:100F8000F1F86420B8FBF0F004012009642101FBB2
:100F90001089A88900F4004040B1322000EBC9005C
:100FA000B0FBF1F000F00700044308E0322000EB52
:100FB00009106421B0FBF1F000F00F0004432C8114
:100FC00006B0BDE8F087000000380140014688887F
:100FD000C0F30800704700BFFEE7014600BF70473E
:100FE00070B5002422E0284A52F82410274A52F80B
:100FF000240001F08FFC0646254901F0BFFB0546A1
:1010000001F0A0FB234941F82400084650F82400D1
:101010000A2190FBF1F201FB12001E4951F8241045
:10102000081A1C4941F82400601CC4B2042CDADB05
:1010300018480068174949680844164989680844EF
:101040001449C968084414490860084600686428BF
:1010500005DB08460068DC2801DA012070BD0E4877
:101060000068DC2806DB0C480068B0F5C87F01DAB0
:101070000220F3E708480068B0F5C87F01DB0320D1
:10108000ECE700BFEAE700006000002070000020ED
:1010900000009643500000200000002010B513E02F
:1010A00029220DE0BE2107E0AF2301E05C1EE3B280
:1010B000002BFBDC4C1EE1B20029F5DC541EE2B231
:1010C000002AEFDC441EE0B20028E9DC10BD00007D
:1010D00010B56FF00400FFF74EFD0A4800680A499A
:1010E000B0FBF1F0094908700846007800EB4001B8
:1010F000C1EBC0104FF6FF7101EAC000044908803F
:1011000010BD00001000002000127A002400002012
:10111000260000200146114A12884A434FF0E0237E
:101120005A6100229A611A46126942F001021A615C
:1011300000BF4FF0E022106900F001021AB100F484
:101140008032002AF5D04FF0E022126922F001022D
:101150004FF0E0231A6100229A61704726000020B8
:101160000146114A12784A434FF0E0235A610022A7
:101170009A611A46126942F001021A6100BF4FF0EB
:10118000E022106900F001021AB100F48032002A56
:10119000F5D04FF0E022126922F001024FF0E02377
:1011A0001A6100229A6170472400002010B51E20A9
:1011B0000D49086013E001200C49086040F2A4606A
:1011C000FFF7CEFF00200A49C1F8800144F27C708D
:1011D000FFF7C6FF04480068401E03490860024844
:1011E00000680028E7DC10BD4C000020800123428D
:1011F0000000234210B501200749086040F27260E8
:10120000FFF7AEFF00200549C1F8840144F2AE703B
:10121000FFF7A6FF10BD0000840123420000234217
:1012200010B514201C49086013E001201B49086018
:1012300040F20E60FFF794FF00201949C1F88401C5
:1012400043F6A400FFF78CFF13480068401E1249C4
:101250000860114800680028E7DC14200E49086087
:1012600014E001200D49091F086040F24650FFF7C5
:1012700077FF00200A49C1F8800144F27400FFF7AB
:101280006FFF05480068401E034908600248006877
:101290000028E6DC10BD00004C0000208401234241
:1012A0000000234210B50120074908604FF4966002
:1012B000FFF756FF00200549C1F8840144F670107D
:1012C000FFF74EFF10BD00008401234200002342BF
:1012D00010B501200749086040F21C70FFF740FF7D
:1012E00000200549C1F8840144F20470FFF738FF7B
:1012F00010BD0000840123420000234210B51420D9
:101300000D49086013E001200C4908604FF4E160CA
:10131000FFF726FF00200A49C1F8840144F2187043
:10132000FFF71EFF04480068401E0349086002489A
:1013300000680028E7DC10BD4C0000208401234237
:101340000000234210B514200D49086013E001206D
:101350000C49086040F29470FFF702FF00200A4930
:10136000C1F8840144F28C60FFF7FAFE044800687B
:10137000401E03490860024800680028E7DC10BDF1
:101380004C000020840123420000234210B50120BC
:101390000749086040F23C50FFF7E2FE0020054993
:1013A000C1F8840144F6E400FFF7DAFE10BD000046
:1013B000840123420000234210B501200749086040
:1013C0004FF4B960FFF7CCFE00200549C1F8840155
:1013D00044F65800FFF7C4FE10BD0000840123420C
:1013E0000000234208B501214020FFF7A7FA102092
:1013F0008DF803000320ADF800008DF80200694667
:101400000348FFF7B6F903210148FFF746FA08BD84
:101410000018014008B501211020FFF78FFA0121C3
:101420000420FFF78BFA01210820FFF787FA4820F4
:101430008DF803004FF4F860ADF8000069461348DA
:10144000FFF797F94FF4F8611048FFF726FA4820A4
:101450008DF803005220ADF8000069460C48FFF7F4
:1014600088F952210A48FFF718FA48208DF803003E
:1014700041F20100ADF8000069460648FFF779F92E
:1014800041F201010348FFF708FA08BD00100140CE
:1014900000080140000C014010B574480078002895
:1014A0007ED040217248FFF7EFF988B38021704861
:1014B000FFF7EAF960B34FF480716D48FFF7E4F984
:1014C00030B34FF400716A48FFF7DEF900B34FF410
:1014D00080616748FFF7D8F9D0B102216548FFF76E
:1014E000D3F9A8B110216348FFF7CEF980B14021AC
:1014F0006048FFF7C9F958B101215F48FFF7C4F907
:1015000030B14FF480515C48FFF7BEF9002863D139
:101510000A20FFF7FFFD40215548FFF7B5F918B93C
:10152000002052490870012480215148FFF7ACF98E
:1015300018B900204D49087002244FF480714C48BE
:10154000FFF7A2F918B900204849087003244FF4A6
:1015500000714748FFF798F918B90020434908700F
:1015600004244FF480614248FFF78EF918B9002037
:101570003E490870052402213E48FFF785F918B955
:1015800000203A4908700B2410213A48FFF77CF9F3
:1015900018B900203549087016244021354800E06C
:1015A0001AE0FFF771F918B90020304908702124BA
:1015B00001213148FFF768F918B900202B4908705C
:1015C0002C244FF480512C48FFF75EF9F0BB00202B
:1015D00026490870372446E02448007801283DD089
:1015E00040212348FFF750F901283CD180212048B1
:1015F000FFF74AF9012836D101021D48FFF744F9E7
:10160000012830D141021A48FFF73EF901282AD1BA
:1016100081021748FFF738F9012824D10221154823
:10162000FFF732F901281ED110211248FFF72CF9DB
:10163000012818D140210F48FFF726F9012812D1BF
:1016400001210D48FFF720F9012800E00BE00AD145
:1016500001030948FFF718F9012804D101200349C3
:101660000870002010BD2046FCE700004800002064
:101670000010014000080140000C014008B50121A4
:101680001020FFF75BF901210420FFF757F9012132
:101690000820FFF753F901218020FFF74FF90121BE
:1016A0000802FFF74BF910208DF803003F20ADF83A
:1016B000000003208DF8020069462848FFF759F81A
:1016C0003F212648FFF7E9F810208DF80300A120FC
:1016D000ADF8000003208DF8020069462048FFF7AE
:1016E00048F8A1211D48FFF7D8F810208DF8030015
:1016F0004FF42A70ADF8000003208DF8020069460F
:101700001848FFF736F84FF42A711648FFF7C5F866
:1017100010208DF80300C001ADF8000003208DF803
:10172000020069461048FFF724F84FF400610E48A4
:10173000FFF7B3F810208DF8030044F20200ADF873
:10174000000003208DF8020069460848FFF711F8F1
:1017500044F202010548FFF7A0F808BD001001405F
:1017600000080140000C0140001C01400020014025
:1017700001250826FFF714FAFFF780FFFFF74AFE5E
:10178000FFF730FEFFF74CFD01204849086048494B
:10179000C1F8940145491031086044491831086086
:1017A00000204449086080E0FFF776FE0446012CE3
:1017B00001D0012E19D101203C4908603C49C1F8F3
:1017C00094013A49103108603949C1F8A401012C4B
:1017D00001D1FFF7EBFC00F0F7F9012D00D126460F
:1017E0000025012C01D004B12646022C01D0022E86
:1017F00019D101202D4908602D49C1F894012B49C8
:10180000103108602A49C1F8A401022C01D1FFF768
:10181000CDFC00F043F9012D00D126460025022C15
:1018200001D004B12646032C01D0032E19D101208A
:101830001E4908601E49C1F894011C491031086016
:101840001B49C1F8A401032C01D1FFF7AFFC00F044
:101850005DFA012D00D126460025032C01D004B1EC
:101860002646042C01D0042E0DD1042C01D1FFF703
:101870009DFC00F0FBFA012D00D126460025042C2A
:1018800001D004B12646052C01D0052E0DD1052C22
:1018900001D1FFF78BFC00F00FF8012D00D1264697
:1018A0000025052C01D004B126467DE78C8121421C
:1018B000008021428401244210B501206E49086055
:1018C0006E49C1F884016C4908310860091D08603F
:1018D0000020091D08600120694908606949086005
:1018E0006849083108606749103108606649C1F8E5
:1018F000A40100BFFFF774FB6448006864280BDC98
:101900006348007840B96348007828B9FFF772FC53
:1019100000205B49343908605C480068642811DDA8
:101920005B48007870B95B48007858B9FFF7B4FDA0
:10193000162807D10120FFF7B1FB00F0F3FB0120CF
:101940005349087051480068642809DC5048007801
:10195000012805D14F48007810B901204D49087081
:101960004A480068642813DD4948007801280FD1EF
:101970004848007801280BD1FFF78EFD162807D1C3
:101980000120FFF78BFB00F015FC0920404908708F
:101990003E48006864280ADC3D480078092806D1E2
:1019A0003C480078012802D109203A49087037489C
:1019B0000068642813DD3648007809280FD13548BF
:1019C000007809280BD1FFF767FD162807D1012001
:1019D000FFF764FB00F0CAFB6F202D4908702B480D
:1019E000006864280ADC2A4800786F2806D1294854
:1019F0000078092802D16F20264908702348006822
:101A0000642838DC224800786F2834D121480078D7
:101A10006F2830D1FFF740FD16282CD1002018493F
:101A2000343908600120FFF739FB01201A49C1F859
:101A30008401FFF733FB002011493439086001208D
:101A4000FFF72CFB01201449C1F88401FFF726FBA6
:101A500000200B49343908600120FFF71FFB0120EB
:101A60000D49C1F88401FFF719FB002008490870EF
:101A7000084908703EE710BD800122420000224262
:101A8000B80124428C8121420080214200000020C4
:101A90000B0000200C0000200000244210B5FFF7CE
:101AA0009FFA01204249086000204249C1F88401A0
:101AB00001203F4908310860091D08603D49C1F80F
:101AC00090013D480068322813DAFFF7EBFB012054
:101AD0003A49086040F2A460FFF742FB0020384911
:101AE000C1F8800144F27C70FFF73AFB00203549D1
:101AF00008603148006864281BDB2F480068DC2838
:101B000017DA0A2411E001202C49091D08604FF45E
:101B10009660FFF725FB00202949C1F8840144F6AF
:101B20007010FFF71DFB601EC4B2002CEBDC00F050
:101B3000F9FA21480068DC281CDB1F480068B0F572
:101B4000E17F17DA0A2411E001201C49091D086011
:101B50004FF49660FFF704FB00201949C1F8840197
:101B600044F67010FFF7FCFA601EC4B2002CEBDCE8
:101B700000F020FB10480068B0F5E17F17DB0A2475
:101B800011E001200D49091D08604FF49660FFF730
:101B9000E7FA00200A49C1F8840144F67010FFF703
:101BA000DFFA601EC4B2002CEBDC00F0DFFA10BDDF
:101BB00080012242000022420000002080012342D6
:101BC000000023428401244210B5FFF709FA0020E7
:101BD0004749086001204749C1F884014449083158
:101BE0000860091D08604349C1F890014248006837
:101BF00032281ADA0A2415E0FFF76AFB01203F4970
:101C0000086040F2A460FFF7ABFA00203C49C1F83D
:101C1000800144F27C70FFF7A3FA00203949086084
:101C2000601EC4B2002CE7DC00BF334800683228D5
:101C30005DDD35488068AA280EDB334800683249EC
:101C4000496808443049C9680844322804DAFFF773
:101C500055FB00F067FA4AE02B488068AA280FDBA2
:101C60002948406832280BDD274800682649C968A2
:101C70000844322804DAFFF741FB00F09BFA36E013
:101C800021488068AA2810DC1F48406832280CDDF3
:101C90001D480068642808DD1B48C068322804DA43
:101CA000FFF72CFB00F062FA21E017488068AA28B1
:101CB00010DD1548406832280CDD134800686428A0
:101CC00008DD1148C068322804DAFFF73BFB00F05A
:101CD00029FA0CE008480068B0F5C87F07DD0A481B
:101CE000C068322803DBFFF72DFB00F03FFA10BD80
:101CF0008001224200002242000000208001234295
:101D000000002342840124425000002010B501202D
:101D10004E4908604E49C1F8840100204B49083102
:101D200008600120091D08604949C1F89001FFF7CA
:101D300057F948480068642816DCFFF727FB0020A5
:101D40004549086001204549C1F8800140F2A4607E
:101D5000FFF706FA00204249086044F27C70FFF762
:101D6000FFF900203F4908703A48006864286CDD9C
:101D70000120FFF793F93B48007848B92846FEF761
:101D800027FA032190FBF1F201FB1200364908709B
:101D90003548007820B101281ED0022854D137E000
:101DA0000A2411E001202E49091D08604FF49660B5
:101DB000FFF7D6F900202949C1F8840144F67010D4
:101DC000FFF7CEF9601EC4B2002CEBDC00F0CEF9B8
:101DD00001202449087037E00A2411E0012020493D
:101DE000091D08604FF49660FFF7BAF900201B49FF
:101DF000C1F8840144F67010FFF7B2F9601EC4B256
:101E0000002CEBDC00F08EF90120164908701BE075
:101E10000A2411E001201249091D08604FF4966060
:101E2000FFF79EF900200D49C1F8840144F67010B7
:101E3000FFF796F9601EC4B2002CEBDC00F0BAF993
:101E400001200849087000BF00BF10BD8001224278
:101E500000002242000000208401244200002342AE
:101E600080012342070000200600002010B5012059
:101E7000A0490860A049C1F884019E490831086062
:101E80000020091D086001209B49C1F89001FFF75F
:101E9000A7F89A48006864281DDC99480078D0B9F2
:101EA00098480078B8B998480078A0B9FFF784FA44
:101EB00000209649086001209549C1F8B80195496C
:101EC0000860944908310860924910310860002088
:101ED0009149C1F8A40189480068642823DD884835
:101EE000007800BB87480078E8B987480078D0B907
:101EF0000520FFF7D3F8FFF773F888490870012031
:101F00008249343108608449C1F88C018149083123
:101F1000086000207F49103108607E491831086050
:101F200001207749087075480068642821DC7448EE
:101F3000007801281DD173480078D0B97248007824
:101F4000B8B90220FFF7AAF801206D4908706E4960
:101F500008706E49343108606F49C1F88C01002067
:101F60006C49083108606B491031086069491831C3
:101F7000086062480068642824DD61480078012810
:101F800020D160480078E8B95F480078012819D16D
:101F90000520FFF783F8FFF723F861490870002058
:101FA0005A49343108605C49C1F88C0159490831FB
:101FB00008605849103108605649183108600120FE
:101FC000504908704D48006864287DDC4C48007812
:101FD000012879D14B4800780128FAD14A48007885
:101FE0000128F6D1FFF758FA0B28F2D14B480078B8
:101FF000012803D14A48007802280FD047480078CA
:10200000022803D146480078032807D043480078C7
:1020100003281CD142480078012818D100F082F82A
:102020000020374908703749087037490870012087
:102030003649343108603849C1F88C0135490831D6
:10204000086034491031086032491831086033485B
:10205000007833490978884218D100F0ABF80020A5
:102060002749087027490870274908700120274927
:10207000343108602849C1F88C01264908310860CC
:10208000244910310860234918310860234800783A
:10209000012803D12248007803280FD01F48007878
:1020A000022803D11E480078012807D01B48007879
:1020B00003281ED11A48007802281AD100F056F8D9
:1020C00000200F49087000E013E00E4908700E4927
:1020D000087001200D49343108600F49C1F88C01A6
:1020E0000C49083108600B49103108600949183162
:1020F000086010BD80012242000022420000002042
:1021000008000020090000200A0000208401244269
:10211000000024428C8121420080214204000020E2
:102120000500002010B519200D49086013E00120BA
:102130000C49086040F20E60FFF712F800200A49CF
:10214000C1F8800144F61200FFF70AF8044800685D
:10215000401E03490860024800680028E7DC10BD03
:102160004C000020800123420000234210B51E20B5
:102170000D49086013E001200C49086040F2064058
:10218000FEF7EEFF00200A49C1F8800144F61A204C
:10219000FEF7E6FF04480068401E03490860024855
:1021A00000680028E7DC10BD4C00002080012342BD
:1021B0000000234210B514200D49086013E00120EF
:1021C0000C4908604FF4A560FEF7CAFF00200A49D9
:1021D000C1F8800144F6F800FEF7C2FF0448006829
:1021E000401E03490860024800680028E7DC10BD73
:1021F0004C000020800123420000234210B586B02D
:102200000446012144F20400FEF798FB4FF40070ED
:10221000ADF8140003208DF8160018208DF8170073
:1022200005A91C48FEF7A5FA4FF48060ADF814002C
:1022300004208DF8170005A91648FEF79AFA252004
:102240008DF8000003208DF801008DF802000120B8
:102250008DF803006846FEF727FB01940020ADF8D7
:102260000800ADF80A00ADF80C00ADF810000C2025
:10227000ADF80E0001A90848FEF73CFE012240F22D
:1022800025510548FEF710FE01210348FEF7D6FD53
:1022900006B010BD000801400038014021F00042A6
:1022A000A2F16052B2F5801F01F0004328BFD2F1C5
:1022B0007F6C0BD95FEA001C43EAC20242EB50700C
:1022C00018BF704728BF20F001007047B2F5801F8B
:1022D000BCBF184670474FEA410C1CF5001F02D2E4
:1022E000084600F012BB70B500F075F900000089D7
:1022F000FFF7F6BF4FF00040A0F5800070470000E8
:102300002DE9C04130B4DFF8A0C23CEA111418BF77
:102310003CEA131400F0EC8081EA03051CEA111476
:1023200044EAD57418BF1CEA131500F0C780A4EB6B
:1023300005044FF0004545EAC12145EAC32341EABF
:10234000505143EA525304F17F74994204F500342A
:102350004FEAC0204FEAC22208BF904200F09C80A2
:102360004FEA13650FF24016765D4FEA134506FB00
:1023700005F7C7F1807706FB07F74FEAD737A7FBCA
:1023800003687642C8F58038A7FB06CE38BFA8F1AF
:10239000010807FB08E64FF0000EA6FB028CE6FBE7
:1023A00003CEDCF1000CCEF1004E38BFAEF1010ED1
:1023B000A6FB0C584FF000074FF00005E6FB0E8718
:1023C000A1FB08C6A0FB07CE16EB0E0645F10005E3
:1023D000E1FB076515F1E04E7EBFA4F580345FEAAE
:1023E00046066D4116F1800745F100054FEA1727B3
:1023F0004FEA066647EA0567A6F1DE46B6F1805F5A
:102400004FEA15251FD9384624F0010C05EBC4719D
:10241000BCF1FE6F01EB0C1102D8F0BCBDE80081ED
:1024200024425CBF01F5801E9EEAC47F02D4F0BC4A
:10243000BDE80081244238D4F0BCA1F1C041BDE820
:10244000004100F016B94FEAD22242EA43524FEA65
:10245000D323A7FB02864FEAD02040EA415007FB76
:1024600003661EEA0E0F4FEAD12105FB026658BF34
:10247000A6EB0056B6EB00564FEA520E4EEAC37E6C
:1024800018EB0E0E56EB530EBDD518EB02085E414D
:102490007F1C55F10005B6E74FF480154FF000079B
:1024A0004FF000064FF00008ADE7F0BC4FF0000021
:1024B00001F1C04101F00041BDE8008111EA0C1FAB
:1024C0000CEA131500D00CE013EA0C1F00F0258075
:1024D0004FF00000F0BC81EA030101F00041BDE8CB
:1024E0000081F0BCBDE8004181EA030100F0C1B801
:1024F000F0BCBDE8004170B500F06DF8097EFC3E0F
:1025000000F007B881EA03014FF0000001F000413C
:10251000704781EA030100F0ACB8F0BCBDE80041AF
:102520004FF0000021497047FFFDFBF9F7F5F4F289
:10253000F0EEEDEBE9E8E6E4E3E1E0DEDDDBDAD85E
:10254000D7D5D4D3D1D0CFCDCCCBCAC8C7C6C5C4BC
:10255000C2C1C0BFBEBDBCBBBAB9B8B7B6B5B4B3D3
:10256000B2B1B0AFAEADACABAAA9A8A8A7A6A5A4BE
:10257000A3A3A2A1A09F9F9E9D9C9C9B9A99999882
:102580009797969595949393929191908F8F8E8E25
:102590008D8C8C8B8B8A89898888878786858584B2
:1025A00084838382828181800000FF070000F87F9E
:1025B000B0FA80F310FA03F10AD0C3F11D0303F55A
:1025C00080634FEA41504FEA035202EBD12170473A
:1025D0004FF0000070470EF1020E2EF0030E5EF871
:1025E000046B364205D4012A43EB030515F5001FA1
:1025F00012D8012841EB010C1CF5001F0CD80ED19C
:102600004FEAD17C15F5001F0CEB4C0C0CF1020CC1
:1026100008BF4CEBD37C04E04FF0080C01E04FEA1C
:10262000D37C0CEB4C0526FA05F606F00706B6F14E
:10263000040C06D20EEB860CBDE870404CF0010C89
:102640006047DFE80CF0090B02024FF000414FF049
:102650000000A1F5002170BD19461046012851EB7C
:10266000010418BFD4F5001484BF002001F000411C
:1026700070BD0808A0F500114FEA31017047000055
:1026800090EA010F48BF81F0004100F14A81421AEF
:102690003CBF801A89184FEAD0524FF07F4C1CEA99
:1026A000410FA2EBD15318BF9CEA026F00F03B80B0
:1026B0004FF0004C4CEA00204CEA012121FA03FCC7
:1026C00010EB0C0C1ED202F1FF325FEA1C2040EB33
:1026D000C25038BF70471CF07F0F4FEA400C18BF44
:1026E000BCF17F4F38BF7047C3F12003994008BF4A
:1026F00020F00100BCF17F4F38BF7047A0F1C0400F
:1027000000F003B94FEA3C00000A40EBC25028BF7A
:102710001CF0FF0F4FEA400CE6D018BFBCF17F4F12
:1027200038BF7047EAE79CEA026F05D010EA5C0FF9
:1027300008BF00F00040704710B500F0A0F800BFDF
:1027400064FBBE3E41000B0ED3F19E0208D950F44B
:1027500000034FEA032323FA02F048BF40427047C8
:1027600010B500F08CF800BF49922480002070471B
:102770006FF0004282EA2000704700004FF47F0CA7
:102780001CEAD0121EBF1CEAD11392EA0C0F93EA86
:102790000C0F00F0478090EA010F48BF42F48072AE
:1027A0004FF0004C4CEA00204CEA012102EB0302FE
:1027B000A0FB0113A2F50002002918BF43F001039A
:1027C0005B0028BF4FEA330342EB22425FEA132C3F
:1027D0004CEBC2502EBFBCEB436FB2F57C0F704781
:1027E0004FEA036CBCF1004F08BF20F00100B2F5C6
:1027F0007C0F38BF70470BD582F0FF0212F5803F87
:10280000C8BF704700F1C040D8BF00F0004070471B
:1028100000F5000C5FEA4C0C48BF7047B0F1C040B7
:1028200000F073B890EA010F0CEAD11348BF42F4EC
:102830008072624538BF634504D280EA010000F02F
:102840000040704710B500F01AF800BF8900013E43
:1028500000F007B800F009B85FEA410C5FEA1C6CB1
:1028600008D080EA010000F050B85FEA400C5FEA4F
:102870001C6CF6D14FF00040A0F5800070470EF1BF
:10288000020E2EF0030E5EF8044B244204D44FEAED
:102890004102B2F17F4F11D84FEA4003B3F17F4FAD
:1028A0000CD80ED14FEAD07CB2F17F4F0CEB4C0C20
:1028B0000CF1020C08BF4CEBD17C04E04FF0080C8B
:1028C00001E04FEAD17C0CEB4C0324FA03F404F052
:1028D0000704B4F1040C06D20EEB840CBDE81040E2
:1028E0004CF0010C6047DFE80CF0070802024FF0E3
:1028F0000040A0F5800010BD0846420018BFD2F18C
:10290000807288BF00F0004010BDFF2141EAD05026
:10291000C005704790EA010F48BF81F000413FF5C4
:10292000B6AE421A04D882F00042A0EB0200114475
:102930004FEAD0524FF07F4C1CEA410FA2EBD1532B
:1029400018BF9CEA026F4AD04FF0004C4CEA0020BE
:102950004CEA012121FA03FCB0EB0C0C0FD412F06D
:10296000FE0F36D05FEA4C001DD5001240EBC2507E
:1029700038BF70471CF03F0F18BF70470BE0A2F143
:1029800001025FEA1C2040EBC25038BF70471CF0C8
:102990007F0F18BF7047C3F12003994014BF401E3A
:1029A00020F00100704780084FEA122308BF7047EB
:1029B000B0FA80FCA2EB0C02CCF1280C60FA0CF00F
:1029C00093EA122F04BF00EBC25070474FEAC37066
:1029D0007047130A5FEADC1008BF7047F6E79CEA0D
:1029E000026F04D010EA5C0F08BF0020704710B5DA
:1029F000FFF745FF40DFF63E81F0004070470000E2
:102A0000202A000800000020500000006C0100088F
:102A1000702A0008500000204008000088010008CB
:102A200000000000000000000000000000000000A6
:102A300000A24A040000000000000000010203049C
:102A40000607080900000000000000000000000068
:102A5000000001020304010203040607080902043E
:102A60000608000000000000010000000000000057
:0400000508000205E8
:00000001FF
