:020000040800F2
:1000000090070020CD010008BD080008B5080008D1
:10001000B9080008150300083F10000800000000A0
:10002000000000000000000000000000490A000875
:10003000610300080000000031090008B70B000848
:10004000E7010008E7010008E7010008E7010008F0
:10005000E7010008E7010008E7010008E7010008E0
:10006000E7010008E7010008E7010008E7010008D0
:10007000E7010008E7010008E7010008E7010008C0
:10008000E7010008E7010008E7010008E7010008B0
:10009000E7010008E7010008E7010008E7010008A0
:1000A000E7010008E7010008E7010008E701000890
:1000B000E7010008E7010008E7010008E701000880
:1000C000E7010008E7010008E7010008E701000870
:1000D000E7010008050E0008E7010008E701000835
:1000E000E7010008E7010008E7010008E701000850
:1000F000E7010008E7010008E7010008E701000840
:10010000E7010008E7010008DD0C0008E70100082E
:10011000E7010008E7010008E7010008E70100081F
:10012000E7010008E7010008E7010008E70100080F
:1001300000F002F800F03AF80AA090E8000C8244BF
:100140008344AAF10107DA4501D100F02FF8AFF29C
:10015000090EBAE80F0013F0010F18BFFB1A43F0A5
:1001600001031847041C0000241C0000103A24BF9F
:1001700078C878C1FAD8520724BF30C830C144BF0C
:1001800004680C607047000000230024002500264E
:10019000103A28BF78C1FBD8520728BF30C148BFEA
:1001A0000B6070471FB51FBD10B510BD00F06EF895
:1001B0001146FFF7F7FF01F065F800F0A0F803B46F
:1001C000FFF7F2FF03BC00F03CFF00000948804746
:1001D00009480047FEE7FEE7FEE7FEE7FEE7FEE729
:1001E000FEE7FEE7FEE7FEE704480549054A064B41
:1001F00070470000210C0008310100089001002028
:10020000900700209003002090030020704700001A
:100210000FB4044910B503AA029800F009F810BC05
:100220005DF814FB48000020704770477047704726
:10023000074B70B50D467B4400F011F80446284684
:1002400000F020F810B14FF0FF3070BD204670BDB7
:10025000FB0F000001694A1C02610878704700B575
:100260008FB0CDE901310021059105497944CDE9EF
:1002700003101146684600F02EF80FB000BD0000D4
:10028000E5FFFFFF007B00F080007047754600F03F
:100290003DF8AE4605006946534620F00700854606
:1002A00018B020B5FFF7A0FFBDE820404FF00006D2
:1002B0004FF000074FF000084FF0000B21F007014E
:1002C000AC46ACE8C009ACE8C009ACE8C009ACE891
:1002D000C0098D4670472DE9F04106460024D6E955
:1002E0000170F5688046304603E04146B847641C1B
:1002F0003046A8470028F8D12046BDE8F0810446E2
:10030000AFF300802046FFF75AFF00000048704717
:100310003001002000BFFEE72DE9F0478146484646
:1003200000F01FF80B4908600846006801F0F4FA75
:1003300007463A460B460848084901F095F9054634
:1003400001F060F904462146204601F0CBFBBDE8F0
:10035000F087000064000020DBF97E6AB8A8AB419A
:10036000704770B5054635B1012D0FD0022D18D05C
:10037000032D2CD120E0002000F0EEF9C0F30B0497
:10038000012000F0E9F940EA044421E0022000F0F5
:10039000E3F9C0F30B04032000F0DEF940EA044463
:1003A00016E0042000F0D8F9C0F30B04052000F09B
:1003B000D3F940EA04440BE0062000F0CDF9C0F385
:1003C0000B04072000F0C8F940EA044400E000BF35
:1003D00000BF24F07044204670BD10B500F06EF8E8
:1003E00000F09AF87E2000F0B7F9044645F2494043
:1003F00084425FD1FB223421082000F09BFBFB22CA
:100400003421092000F096FBFB2234210A2000F061
:1004100091FBFB2234210B2000F08CFB1B220021DE
:10042000102000F087FB1B220021112000F082FB2E
:100430001B220021122000F07DFB1B220021132033
:1004400000F078FB02222021142000F073FB02222E
:100450002021152000F06EFB02222021162000F042
:1004600069FB02222021172000F064FB0022782182
:100470001E2000F05FFB002278211F2000F05AFBB5
:1004800000227821202000F055FB00227821212035
:1004900000F050FB00221146192000F04BFB0D220A
:1004A000C2211B2000F046FB012214211A2000F07B
:1004B00041FB01E0012010BD0020FCE77047000077
:1004C00010B500200E4908600E48006820F4704006
:1004D0000C4908600846006840F44050086000205D
:1004E0000949C1F8AC0100F011F801200449086085
:1004F00000F00CF800200449C1F8A80110BD00006C
:10050000A8812142040C01400080214210B5022044
:1005100000F06AFE10BD000008B50121082000F0BF
:1005200019FA4FF44060ADF8000010208DF8030078
:1005300003208DF802006946044800F02EF94FF4BC
:100540004061024800F0B4F908BD0000000C014011
:1005500010B500200E4908600E48006820F4704075
:100560000C4908600846006840F4405008600120CB
:100570000949C1F8AC01FFF7C9FF0120044908602F
:10058000FFF7C4FF00200449C1F8A80110BD000016
:10059000A8812142040C01400080214270B505462B
:1005A00000241648006820F470401449086008468A
:1005B000006840F400400860002614E00020104964
:1005C0000860FFF7A3FF01200E49C1F8A8016006EB
:1005D000040E0B487C38006808B1601CC4B2FFF7F9
:1005E00095FF701CC6B2082EE8DB15B9FFF7B0FF07
:1005F00001E0FFF765FF204670BD0000040C0140DC
:10060000A88121420080214270B50446124800684A
:1006100020F47040104908600846006840F44050DB
:10062000086000200D490860002512E0E0090B4930
:10063000091D08606006040E01200949C1F8A801DF
:10064000FFF764FF002005490860FFF75FFF681CA3
:10065000C5B2082DEADB70BD040C0140A88121421F
:100660000080214210B50E48006820F470400C490B
:1006700008600846006840F44050086001200949BD
:1006800008600949C1F8A801FFF740FF00200549AB
:100690000860FFF73BFF00200349C1F8A80110BD27
:1006A000040C0140AC8121420080214210B50E486B
:1006B000006820F470400C4908600846006840F467
:1006C000405008600020094908600949C1F8AC01A0
:1006D000FFF71CFF0120054908600549C1F8AC017E
:1006E000FFF714FF10BD0000040C0140A881214257
:1006F0000080214210B500241448006820F47040A6
:10070000124908600846006840F400400860012073
:100710000F490860FFF7FAFE01200E49C1F8A80151
:10072000FFF7F4FE07E0601CC4B2FA2C03DDFFF70C
:10073000BDFF012010BD0648803800680028F2D1B6
:100740000349091F086000BFF4E70000040C0140E2
:10075000AC8121420080214270B50546FFF782FF3F
:100760005420FFF751FFFFF7C5FF2846FFF74CFF66
:10077000FFF7C0FFFFF776FF5520FFF745FFFFF7B4
:10078000B9FF0120FFF70AFF04020020FFF706FF70
:100790000443FFF78BFF204670BD2DE9F041024670
:1007A00000250026002000230024002791F803C024
:1007B0000CF00F0591F803C00CF0100CBCF1000F09
:1007C00003D091F802C04CEA050591F800C0BCF1D5
:1007D000000F31D0146800202BE04FF0010C0CFA10
:1007E00000F3B1F800C00CEA03069E4220D183005A
:1007F0004FF00F0C0CFA03F7BC4305FA03FC4CEA6C
:10080000040491F803C0BCF1280F06D14FF0010C8D
:100810000CFA00FCC2F814C00AE091F803C0BCF165
:10082000480F05D14FF0010C0CFA00FCC2F810C0C3
:10083000401C0828D1D31460B1F800C0BCF1FF0FF0
:1008400034DD546800202EE000F1080C4FF0010860
:1008500008FA0CF3B1F800C00CEA03069E4221D15D
:1008600083004FF00F0C0CFA03F7BC4305FA03FCAE
:100870004CEA040491F803C0BCF1280F05D100F143
:10088000080C08FA0CF8C2F8148091F803C0BCF107
:10089000480F07D100F1080C4FF0010808FA0CF8D6
:1008A000C2F81080401C0828CED35460BDE8F08107
:1008B0000161704700BFFEE700BFFEE77047000020
:1008C00070B5002100230F22C47804B3154C2468AE
:1008D00004F4E064C4F5E064210AC1F10403CA40F1
:1008E000447804FA03F184781440214309010E4C42
:1008F0000678A155047804F01F050124AC40057862
:100900006D11AD0005F1E025C5F8004109E004785E
:1009100004F01F050124AC40044D0678761145F81B
:10092000264070BD0CED00E000E400E080E100E056
:100930007047000029B1064AD2690243044BDA61CC
:1009400004E0034AD2698243014BDA617047000038
:100950000010024029B1064A92690243044B9A6191
:1009600004E0034A92698243014B9A617047000098
:100970000010024030B500210022002400232D4D3C
:100980006D6805F00C0121B1042905D0082923D197
:1009900005E0294D056022E0274D05601FE0254D4B
:1009A0006D6805F47012234D6D6805F480340225DE
:1009B00005EB92421CB9214D554305600BE01D4DDE
:1009C0006D6805F400351DB11C4D5543056002E00E
:1009D000194D5543056002E0174D056000BF00BF8B
:1009E000144D6D6805F0F0010909154D6B5C056843
:1009F000DD4045600F4D6D6805F4E061090A104D5A
:100A00006B5C4568DD4085600A4D6D6805F460519A
:100A1000C90A0B4D6B5C4568DD40C560054D6D68CE
:100A200005F44041890B074D6B5CC568B5FBF3F5D8
:100A3000056130BD0010024000127A0000093D003F
:100A40004E0000205E000020704710B500F002F854
:100A500010BD00000CB500200190009033480068E4
:100A600040F480303149086000BF3048006800F42D
:100A7000003000900198401C0190009818B901982E
:100A8000B0F5A06FF1D12948006800F4003010B132
:100A90000120009001E0002000900098012843D13F
:100AA0002348006840F010002149086008460068AB
:100AB00020F0030008600846006840F0020008606B
:100AC0001A48406819494860084640684860084626
:100AD000406840F4806048600846406820F47C101C
:100AE00048600846406840F4E810486008460068DE
:100AF00040F08070086000BF0C48006800F0007093
:100B00000028F9D00948406820F0030007494860F0
:100B10000846406840F00200486000BF0348406853
:100B200000F00C000828F9D10CBD000000100240B4
:100B30000020024070B506460C461546FFF792FDB0
:100B40005420FFF761FDFFF7D5FD18B1FFF7AEFDAB
:100B5000012070BD3046FFF757FDFFF7CBFD204663
:100B6000FFF752FDFFF7C6FD18B1FFF79FFD01200B
:100B7000EFE72846FFF748FDFFF7BCFD18B1FFF788
:100B800095FD0120E5E7FFF791FD0020E1E704284E
:100B900008D14FF0E021096941F004014FF0E02253
:100BA000116107E04FF0E021096921F004014FF0E5
:100BB000E02211617047704710B500F0CDFA4FF494
:100BC000165000F0CFFC00BFFFF707FC0028FBD158
:100BD0004FF47A7000F0E2FA0020FFF79DFB0C4919
:100BE00008600120FFF798FB0A4908600220FFF720
:100BF00093FB094908600320FFF78EFB0749086053
:100C000041F61F4140F2F31000F03AF810BD000029
:100C10001000002014000020180000201C000020FC
:100C200010B51348006840F00100114908600846FB
:100C30004068104908400E494860084600680E495F
:100C400008400B4908600846006820F480200860CE
:100C50000846406820F4FE0048604FF41F0088609A
:100C6000FFF7F3FE4FF000600449086010BD00007C
:100C7000001002400000FFF8FFFFF6FE08ED00E064
:100C80007FB505460C4601210820FFF753FEADF85D
:100C90000850ADF804400020ADF80A00ADF8060099
:100CA00001A90D4800F05CF8012211460A4800F045
:100CB0004DF832208DF8000000208DF80100012051
:100CC0008DF802008DF803006846FFF7F9FD012159
:100CD000014800F02FF87FBD000C004010B510480F
:100CE000008800F0010098B10020FFF715FB0D49C6
:100CF00008600120FFF710FB0B4908600220FFF796
:100D00000BFB0A4908600320FFF706FB084908604F
:100D10000348008820F001000149088010BD000050
:100D2000100C0040000000200400002008000020FB
:100D30000C00002021B1028842F00102028004E090
:100D400002884FF6FE731A40028070471AB18389F9
:100D50000B43838102E083898B43838170470000CA
:100D6000002202881D4B98420ED01D4B98420BD09A
:100D7000B0F1804F08D01B4B984205D01A4B9842D7
:100D800002D01A4B984204D14FF68F731A404B8809
:100D90001A43174B984207D0164B984204D04FF68F
:100DA000FF431A40CB881A4302808B8883850B88C7
:100DB00003850A4B98420BD0094B984208D00E4B42
:100DC000984205D00D4B984202D00D4B984201D16C
:100DD0000B7A03860123838270470000002C0140B8
:100DE000003401400004004000080040000C0040B6
:100DF0000010004000140040004001400044014049
:100E00000048014010B540F225511D4800F057F848
:100E100010B31B4800F00EF9C4B21A48008800F461
:100E20000040C8B91748008800F4804060B10A2C1F
:100E300003D000201349088020E01248008840F4C5
:100E400000401049088019E00D2C06D10D4800889B
:100E500040F480400B49088010E00A480088C0F345
:100E60000D0009490C5407480088401C05490880BA
:100E700008460088C72801DD0020088010BD00005A
:100E8000003801404C0000206800002021B1828918
:100E900042F40052828104E082894DF6FF731A40C9
:100EA0008281704702460020B1F5007F00D100BF6B
:100EB00013880B400BB1012000E00020704770B593
:100EC0000246002400230025002040F66A16B142A5
:100ED00000D100BFC1F3421501F01F03012606FA3D
:100EE00003F3012D02D19689334006E0022D02D191
:100EF000168A334001E0968A33400C12012606FA26
:100F000004F41688344013B10CB1012000E0002035
:100F100070BDF0B50346002400260025002040F6F1
:100F20006A17B94200D100BF1846C1F3421401F05C
:100F30001F06012707FA06F5012C01D10C3004E049
:100F4000022C01D1103000E014301AB107682F4391
:100F5000076002E00768AF430760F0BD2DE9F04786
:100F600086B005460E460024A24600BFA1460027D3
:100F7000B08900B100BF2F462C8A4CF6FF700440A8
:100F8000F08804432C82AC894EF6F3100440B088FC
:100F900031890843718908430443AC81AC8A4FF618
:100FA000FF400440B0890443AC8201A8FFF7E2FC93
:100FB0001F48874202D1DDF810A001E0DDF80CA047
:100FC000A88900F4004040B10AEBCA0000EB0A1007
:100FD00031684900B0FBF1F807E00AEBCA0000EB0A
:100FE0000A1031688900B0FBF1F86420B8FBF0F01A
:100FF00004012009642101FB1089A88900F4004044
:1010000040B1322000EBC900B0FBF1F000F0070066
:10101000044308E0322000EB09106421B0FBF1F03A
:1010200000F00F0004432C8106B0BDE8F0870000FB
:101030000038014001468888C0F30800704700BFAF
:10104000FEE7014600BF704770B536480168364874
:10105000006800F013FE0546344900F043FD0446E5
:1010600000F024FD3249086008460068642190FBC6
:10107000F1F201FB12002E490968081A2C49086098
:101080002C4801682C48006800F0F8FD0546274907
:1010900000F028FD044600F009FD284908600846D4
:1010A0000068642190FBF1F201FB120023490968FA
:1010B000081A22490860224801682248006800F0A6
:1010C000DDFD0546194900F00DFD044600F0EEFC7B
:1010D0001D49086008460068642190FBF1F201FB9D
:1010E000120019490968081A174908601748016869
:1010F0001748006800F0C2FD05460C4900F0F2FCFC
:10110000044600F0D3FC13490860084600686421D7
:1011100090FBF1F201FB12000E490968081A0D4913
:10112000086070BD100000200000002000007A441C
:1011300020000020140000200400002024000020D3
:101140001800002008000020280000201C000020BB
:101150000C0000202C00002010B56FF00400FFF7F9
:1011600016FD0A4800680A49B0FBF1F00949087009
:101170000846007800EB4001C1EBC0104FF6FF714C
:1011800001EAC0000449088010BD000030000020C2
:1011900000127A0044000020460000200146114A57
:1011A00012884A434FF0E0235A6100229A611A469E
:1011B000126942F001021A6100BF4FF0E02210698B
:1011C00000F001021AB100F48032002AF5D04FF08D
:1011D000E022126922F001024FF0E0231A6100229E
:1011E0009A617047460000200146114A12784A432E
:1011F0004FF0E0235A6100229A611A46126942F0C8
:1012000001021A6100BF4FF0E022106900F00102F4
:101210001AB100F48032002AF5D04FF0E0221269B2
:1012200022F001024FF0E0231A6100229A61704718
:101230004400002000BF054A128802F04002002A44
:10124000F9D0C2B2014B1B1D1A8070470038014013
:1012500008B501211020FFF77DFB10208DF8030059
:101260001F20ADF8000003208DF8020069460448F5
:10127000FFF793FA1F210248FFF71AFB08BD000091
:1012800000100140FFF798FCFFF7E2FFDEE00024CA
:10129000FFF7DAFEFFF7D8FEFFF7D6FEFFF7D4FE22
:1012A000641C6B48006840F63401884211DD6948CF
:1012B0000068B0F5617F0CDD67480068B0F52F7FEE
:1012C00007DB66480068B0F5AF6F02DD64A0FEF78B
:1012D0009FFF5F48006840F63401884216DD5D4894
:1012E0000068B0F5617F11DA5B480068B0F52F7FC8
:1012F0000CDB5A480068B0F5AF6F07DC5748006850
:10130000B0F5617F02DD62A0FEF782FF5048006801
:1013100040F63401884215DA4E480068B0F5617F26
:1013200010DA4D480068C8280CDA4C480068B0F55F
:10133000617F07DD49480068B0F5C86F02DC60A036
:10134000FEF766FF4248006840F6340188421ADA28
:1013500040480068B0F5617F15DA3F480068C8284A
:1013600011DB3D480068B0F5487F0CDC3B48006865
:10137000B0F5617F07DD39480068B0F5C86F02DC61
:101380004FA0FEF745FF3248006840F6340188421E
:101390001BDA30480068B0F5617F16DA2E48006825
:1013A000B0F5FA7F11DB2C480068B0F52F7F0CDC1C
:1013B0002A480068B0F5C87F07DB28480068B0F508
:1013C000617F02DC4AA0FEF723FF2148006840F657
:1013D0003401884211DA1F480068B0F5617F0CDAE9
:1013E0001D480068B0F5C87F07DB1C480068B0F5F1
:1013F000FA7F02DA4AA0FEF70BFF1548006840F6B4
:101400003401884216DA1248006840F24C418842A2
:1014100010DB10480068B0F5617F0BDA0E480068F9
:10142000C82807DC0D480068B0F5FA7F02DA48A04A
:10143000FEF7EEFE00BF40214948FFF733FD0028CC
:10144000F9D04FF47A70FFF7A9FE00BF1FE7000044
:101450002000002024000020280000202C00002074
:10146000353535353535353535353535353535352C
:10147000353535353535353535353535353535351C
:10148000353535353535A3A1A3A1A3A10D0A00003B
:10149000343434343434343434343434343434340C
:1014A00034343434343434343434343434343434FC
:1014B000343434343434A3A1A3A1A3A10D0A000011
:1014C00033333333333333333333333333333333EC
:1014D00033333333333333333333333333333333DC
:1014E000333333333333A3A1A3A1A3A10D0A0000E7
:1014F00032323232323232323232323232323232CC
:1015000032323232323232323232323232323232BB
:10151000323232323232A3A1A3A1A3A10D0A0000BC
:1015200031313131313131313131313131313131AB
:10153000313131313131313131313131313131319B
:10154000313131313131A3A1A3A1A3A10D0A000092
:10155000C8ADCDB7A3A1A3A1A3A10D0A00000000AF
:101560000038014010B586B00446012144F2040061
:10157000FFF7F0F94FF40070ADF8140003208DF878
:10158000160018208DF8170005A91C48FFF705F96B
:101590004FF48060ADF8140004208DF8170005A901
:1015A0001648FFF7FAF825208DF8000003208DF883
:1015B00001008DF8020001208DF803006846FFF756
:1015C0007FF901940020ADF80800ADF80A00ADF8ED
:1015D0000C00ADF810000C20ADF80E0001A9084871
:1015E000FFF7BCFC012240F225510548FFF791FCB2
:1015F00001210348FFF74AFC06B010BD0008014076
:101600000038014021F00042A2F16052B2F5801F83
:1016100001F0004328BFD2F17F6C0BD95FEA001CB8
:1016200043EAC20242EB507018BF704728BF20F057
:1016300001007047B2F5801FBCBF184670474FEAE3
:10164000410C1CF5001F02D2084600F012BB70B519
:1016500000F075F900000089FFF7F6BF4FF0004079
:10166000A0F58000704700002DE9C04130B4DFF8DC
:10167000A0C23CEA111418BF3CEA131400F0EC803D
:1016800081EA03051CEA111444EAD57418BF1CEA68
:10169000131500F0C780A4EB05044FF0004545EAA0
:1016A000C12145EAC32341EA505143EA525304F1B0
:1016B0007F74994204F500344FEAC0204FEAC222F9
:1016C00008BF904200F09C804FEA13650FF240166D
:1016D000765D4FEA134506FB05F7C7F1807706FBF9
:1016E00007F74FEAD737A7FB03687642C8F580387B
:1016F000A7FB06CE38BFA8F1010807FB08E64FF0AC
:10170000000EA6FB028CE6FB03CEDCF1000CCEF152
:10171000004E38BFAEF1010EA6FB0C584FF000078B
:101720004FF00005E6FB0E87A1FB08C6A0FB07CE25
:1017300016EB0E0645F10005E1FB076515F1E04EDD
:101740007EBFA4F580345FEA46066D4116F180073E
:1017500045F100054FEA17274FEA066647EA056795
:10176000A6F1DE46B6F1805F4FEA15251FD938464F
:1017700024F0010C05EBC471BCF1FE6F01EB0C1100
:1017800002D8F0BCBDE8008124425CBF01F5801E98
:101790009EEAC47F02D4F0BCBDE80081244238D464
:1017A000F0BCA1F1C041BDE8004100F016B94FEA1C
:1017B000D22242EA43524FEAD323A7FB02864FEAE2
:1017C000D02040EA415007FB03661EEA0E0F4FEAA5
:1017D000D12105FB026658BFA6EB0056B6EB0056BA
:1017E0004FEA520E4EEAC37E18EB0E0E56EB530E26
:1017F000BDD518EB02085E417F1C55F10005B6E728
:101800004FF480154FF000074FF000064FF000082E
:10181000ADE7F0BC4FF0000001F1C04101F0004124
:10182000BDE8008111EA0C1F0CEA131500D00CE092
:1018300013EA0C1F00F025804FF00000F0BC81EA95
:10184000030101F00041BDE80081F0BCBDE80041AA
:1018500081EA030100F0C1B8F0BCBDE8004170B5F9
:1018600000F06DF8097EFC3E00F007B881EA030144
:101870004FF0000001F00041704781EA030100F0E1
:10188000ACB8F0BCBDE800414FF000002149704702
:10189000FFFDFBF9F7F5F4F2F0EEEDEBE9E8E6E435
:1018A000E3E1E0DEDDDBDAD8D7D5D4D3D1D0CFCDBC
:1018B000CCCBCAC8C7C6C5C4C2C1C0BFBEBDBCBBF5
:1018C000BAB9B8B7B6B5B4B3B2B1B0AFAEADACABF0
:1018D000AAA9A8A8A7A6A5A4A3A3A2A1A09F9F9ECA
:1018E0009D9C9C9B9A99999897979695959493937C
:1018F000929191908F8F8E8E8D8C8C8B8B8A898913
:101900008888878786858584848383828281818095
:101910000000FF070000F87FB0FA80F310FA03F12F
:101920000AD0C3F11D0303F580634FEA41504FEA2B
:10193000035202EBD12170474FF0000070470EF1C7
:10194000020E2EF0030E5EF8046B364205D4012A17
:1019500043EB030515F5001F12D8012841EB010CDC
:101960001CF5001F0CD80ED14FEAD17C15F5001FD5
:101970000CEB4C0C0CF1020C08BF4CEBD37C04E0DC
:101980004FF0080C01E04FEAD37C0CEB4C0526FA33
:1019900005F606F00706B6F1040C06D20EEB860C2F
:1019A000BDE870404CF0010C6047DFE80CF0090B1B
:1019B00002024FF000414FF00000A1F5002170BD80
:1019C00019461046012851EB010418BFD4F5001444
:1019D00084BF002001F0004170BD0808A0F500118F
:1019E0004FEA31017047000090EA010F48BF81F0D3
:1019F000004100F14A81421A3CBF801A89184FEA1F
:101A0000D0524FF07F4C1CEA410FA2EBD15318BFCC
:101A10009CEA026F00F03B804FF0004C4CEA002043
:101A20004CEA012121FA03FC10EB0C0C1ED202F14E
:101A3000FF325FEA1C2040EBC25038BF70471CF0F9
:101A40007F0F4FEA400C18BFBCF17F4F38BF704783
:101A5000C3F12003994008BF20F00100BCF17F4F83
:101A600038BF7047A0F1C04000F003B94FEA3C0016
:101A7000000A40EBC25028BF1CF0FF0F4FEA400C99
:101A8000E6D018BFBCF17F4F38BF7047EAE79CEA49
:101A9000026F05D010EA5C0F08BF00F000407047ED
:101AA00010B500F0A0F800BF64FBBE3E41000B0E75
:101AB000D3F19E0208D950F400034FEA032323FA1E
:101AC00002F048BF4042704710B500F08CF800BFEC
:101AD00049922480002070476FF0004282EA200083
:101AE000704700004FF47F0C1CEAD0121EBF1CEAA6
:101AF000D11392EA0C0F93EA0C0F00F0478090EAA2
:101B0000010F48BF42F480724FF0004C4CEA0020B5
:101B10004CEA012102EB0302A0FB0113A2F5000233
:101B2000002918BF43F001035B0028BF4FEA3303CD
:101B300042EB22425FEA132C4CEBC2502EBFBCEBAF
:101B4000436FB2F57C0F70474FEA036CBCF1004F56
:101B500008BF20F00100B2F57C0F38BF70470BD5ED
:101B600082F0FF0212F5803FC8BF704700F1C0400D
:101B7000D8BF00F00040704700F5000C5FEA4C0C45
:101B800048BF7047B0F1C04000F073B890EA010F51
:101B90000CEAD11348BF42F48072624538BF6345F6
:101BA00004D280EA010000F00040704710B500F058
:101BB0001AF800BF8900013E00F007B800F009B82C
:101BC0005FEA410C5FEA1C6C08D080EA010000F07B
:101BD00050B85FEA400C5FEA1C6CF6D14FF0004051
:101BE000A0F5800070470EF1020E2EF0030E5EF895
:101BF000044B244204D44FEA4102B2F17F4F11D882
:101C00004FEA4003B3F17F4F0CD80ED14FEAD07C9E
:101C1000B2F17F4F0CEB4C0C0CF1020C08BF4CEBFB
:101C2000D17C04E04FF0080C01E04FEAD17C0CEBD2
:101C30004C0324FA03F404F00704B4F1040C06D2B4
:101C40000EEB840CBDE810404CF0010C6047DFE85F
:101C50000CF0070802024FF00040A0F5800010BD14
:101C60000846420018BFD2F1807288BF00F00040E1
:101C700010BDFF2141EAD050C005704790EA010F26
:101C800048BF81F000413FF5B6AE421A04D882F059
:101C90000042A0EB020011444FEAD0524FF07F4CBB
:101CA0001CEA410FA2EBD15318BF9CEA026F4AD045
:101CB0004FF0004C4CEA00204CEA012121FA03FCD1
:101CC000B0EB0C0C0FD412F0FE0F36D05FEA4C00D4
:101CD0001DD5001240EBC25038BF70471CF03F0FBB
:101CE00018BF70470BE0A2F101025FEA1C2040EB35
:101CF000C25038BF70471CF07F0F18BF7047C3F148
:101D00002003994014BF401E20F001007047800856
:101D10004FEA122308BF7047B0FA80FCA2EB0C0216
:101D2000CCF1280C60FA0CF093EA122F04BF00EB00
:101D3000C25070474FEAC3707047130A5FEADC1065
:101D400008BF7047F6E79CEA026F04D010EA5C0F08
:101D500008BF0020704710B5FFF745FF40DFF63E93
:101D600081F0004070470000881D0008000000203E
:101D7000680000006C010008F01D000868000020E9
:101D80002807000088010008000000000000000093
:101D90000000000000000000000000000000000043
:101DA0000000000000000000000000000000000033
:101DB000000000000000000000A24A040000000033
:101DC00000000000010203040607080900000000EB
:101DD00000000000000000000000010203040102F6
:101DE00003040607080902040608000000000000BA
:04000005080001CD21
:00000001FF
